:020000040800F2
:10000000C0050020B9560008D1550008D355000896
:1000100000000000000000000000000000000000E0
:10002000000000000000000000000000D55500089E
:100030000000000000000000D7550008D955000856
:10004000931A0008971A0008172B00089B2E000827
:10005000DB550008BF360008DF43000827460008CC
:10006000F3520008E75300088F5600089B5600081B
:10007000D1560008D356000800000000D5560008ED
:1000800000000000DD550008000000000000000036
:10009000E755000800000000D7560008D9560008B0
:1000A000DB560008DD560008DF560008E156000860
:1000B000E3560008E5560008E7560008E956000830
:1000C000FDB5B4B03C9801AA0023002418C20691E3
:1000D00004A93B2288540F9317A8401C31900F208D
:1000E0006946C87013E0359C3500349F2178069826
:1000F000B8470690002800D140E10F98401C0F90AF
:10010000641C6D1EF2D1349735988019359035985E
:10011000007825280ED1002009900A900B900C90B1
:100120000D900E90002102240420169008201490B7
:10013000359D0FE001AA0021C943359801F0DCF894
:10014000060001D10F981BE1CDD50126DCE70800A0
:10015000012101436D1C28782028F8D023280BD0DA
:100160002B2804D02D2804D0302808D00AE02143C1
:10017000F0E708001699ECE708000821E9E7080015
:100180001021E6E72A280FD1369802681068121D60
:10019000369B1A601190002804D542421192080043
:1001A000169901436D1C12E000201190B94A09E034
:1001B000119B934205DA9E00F3185B001818303843
:1001C00011906D1C28780300303B0A2BF0D328785F
:1001D0002E2803D00020C043109027E06D1C287803
:1001E0002A2808D1369800680268001D369B1860DE
:1001F00010926D1C1AE02D2802D12D226D1C00E0FA
:10020000002200201090A34B0BE0002A08D1109E82
:100210009E4205DAB700BE197600301830381090CB
:100220006D1C28780600303E0A2EEED304A8018704
:100230002E78310056487844FF30573001F074F87A
:10024000002801D06D1C00E0002604A83A21465485
:10025000405C682804D1287868280BD1622005E02A
:100260006C2807D128786C2804D1712004A93A227F
:1002700088546D1C22A80890287869460870681C6C
:100280003590684602781000253834D01C3800D1EB
:100290009CE1001F022800D898E10E3831D0401FA1
:1002A00001D100F0E7FC093800D18FE1801E01D1B7
:1002B00000F07EFD401E01D100F02AFD401E022804
:1002C00000D883E1001F01D100F022FD401F00D1C2
:1002D000D2E0401E01D100F0CDFC401E78D0C01EFF
:1002E00027D0801E01D100F0C5FCC01E01D100F056
:1002F000C1FC00F07CFD252022A908700120099096
:1003000034E06C2004A93A228854369800680268C8
:10031000001D36990860002A53D104A83B21405C97
:1003200000284AD00024E44359487844FF30633021
:1003300018E004A83A21405C6C28E6D036980068A2
:100340000468001D369908600794002C22D104A887
:100350003B21405C002815D00024E4434E487844FB
:10036000FF30373000F0FAFF201A07D122AA04A983
:10037000349800F04BFD002800D4C8E60020C043AC
:1003800037B0F0BD45487844FF3013300790EDE7B3
:10039000CC4F0000109D002D03D5200001F002F885
:1003A00009E02A000021200001F008F8002801D00F
:1003B000001B00E028000A90D8E7394A7A44FF324F
:1003C0001F3A04A9349800F0ABFD0028CED5D5E73C
:1003D000369800680268001D369908600020C04306
:1003E0000021104004AA03C222A80790089B3C24C5
:1003F00004A803C8002904D1002802D1109A002AB9
:1004000016D0641E6D46ED7805403035EEB23A2EBA
:1004100008DA1D5500090A071043090904D100280C
:1004200002D105E02735F4E7079A1D19AA42E8D35F
:100430003C20001B0A90191907911099884207DA8D
:10044000081A0C9004A8018FA74A0A4002878DE77A
:1004500000298BD504A93822895C14220A40102A6D
:1004600084D11199099A891A0C9A891A081A0028B4
:1004700000DC7BE70C9079E704A83B21415C002974
:1004800010D00024E4434F487844FF30393069E706
:10049000244F0000CBCCCC0CFC4E0000144F0000CD
:1004A000304F00003A21405C62286BD068281CD095
:1004B0006A2847D06C2806D0712855D0742833D0CC
:1004C0007A2823D06FE0369800680168001D369ABC
:1004D0001060002906D10024E4433B487844FF30F3
:1004E00017383FE70F98086040E7369800680168C2
:1004F000001D369A1060002905D10024E4433248DB
:100500007844C4302EE70F9808802FE736980068AB
:100510000168001D369A10600029E3D10024E443ED
:1005200029487844A2301DE7369800680168001D0C
:10053000369A10600029D5D10024E443224878443B
:1005400086300FE7369800680268001D369908600B
:10055000002A05D10024E4431B4878446A3001E7AF
:100560000F98C11703C201E7369800680268001DA2
:1005700036990860002AF3D10024E44312487844F5
:100580004630EFE6369800680168001D369A106024
:10059000002905D10024E4430B4878442A30E1E6E1
:1005A0000F980870E2E6369800680168001D369AD8
:1005B0001060002996D10024E443034878440830B1
:1005C000D0E600BFA04D0000B44D0000369803688F
:1005D000DB1D072083433698036003CB369D2B60D9
:1005E00004AB03C3C80F02D009982D210AE004A868
:1005F000008F204202D009982B2103E0C00705D5C7
:100600000998202122AB1954401C099022A809996D
:100610004318079317AD04A8C0C868460078202186
:10062000014368468170807861280BD010980028BB
:1006300001D5062005E005D168468078672801D1FC
:100640000120109004A803C808004C006415641C25
:1006500012D1090310D003200A90613A1A2A03D25A
:1006600022497944863102E02149794482310322CA
:10067000180000F0C9FE79E6002C0AD1000308D169
:1006800003200A90613A1A2A19D31A49794464312D
:10069000EDE703AA04A803C800F0C3FE04AA03C23E
:1006A00068468078612813D1079830210170811C39
:1006B000079169460978612905D1782104E00E493E
:1006C00079443431D3E7582141700998801C09904E
:1006D00004A803C895A20CCA02400B400ED1002A00
:1006E0000CD10024002666E1EFFF0000E84C00007A
:1006F000E84C0000EC4C0000E44C000068468078B8
:10070000612800D09EE01098002801D5212000E04B
:10071000401C15901598401C16903000390000229E
:10072000002300F093FE04A830C802D28020000607
:1007300045400398001F039017A90A7017A8461C8C
:100740001698002836DD169F2000290000228023FD
:100750005B0300F094FE2DD81C2200F0A9FE0400DB
:100760000D0000F0DDFE1690FF1F002F09DD00F0E8
:1007700011FF02000B002000290000F078FF0400A8
:100780000D00F01D07210F226B46DA70169A002A21
:100790000BDD491E09D4401E6E46F67816400670E1
:1007A0001211F4E7401E00220270491EFAD5C61D40
:1007B000002FC9DC17A83199711A17AA551C159A70
:1007C0000C00914200DD1400002C34D48C4206DA77
:1007D000411C095D082902DB6946C97800E0002157
:1007E000220017AB9B1801E0641E5B1E521E1E7890
:1007F0008E42F9D00F2904D1411C895C491C401C50
:100800008154002A04D517AD641C0398001D039081
:10081000611E10D46A186846007813783033DEB24F
:100820003A2E01DBC318C6331370491E521E00292D
:10083000F3D5694608701098002800D4BAE0601E0D
:100840001090B7E07F007F080398694948436949E1
:1008500000F084FF039007200399401A002805DD6B
:1008600002003000390000F04DFC0AE04242002056
:10087000614900F047FC02000B003000390000F035
:100880009CFF6A469278662A02D1039A0A3200E0F7
:100890000622109B9A18142A00DD142217AB30246C
:1008A0001C705C1C02E032A803C8159A002A41DDC6
:1008B00032AB03C3159232A803C800F043FE219067
:1008C00006460834169D30000A2100F05BFF0F0039
:1008D00030000A2100F056FF06003037601E077016
:1008E00030000A2100F04EFF0F0030000A2100F016
:1008F00049FF0600A41E303727706D1EE3D108346F
:100900001598083815900028CDDD219800F032FEAA
:1009100002000B0032A803C800F0A9FE0022374BEA
:1009200000F0ACFF32AA03C2C5E700BFFFFFFFFF24
:10093000FFFFFF7F3198201A17A94D1C04E0401ECD
:100940000399491E03916D1C29783029F7D0694617
:100950008978662902D10399491C06E0694689789D
:10096000652901D1012100E00021109A5418A0420C
:1009700000DA441E002C1DD4844204DA285D342899
:1009800001DD392100E030212200681E831801E0DA
:10099000641E5B1E521E1E788E42F9D0392902D188
:1009A000A95C491CA954002A04D50500641C0398BD
:1009B000401C0390039E1595684600786946487070
:1009C00000F0AAFC406A007869460870109D20B2C9
:1009D000002804DC0124054878441030159068464E
:1009E000807866280CD1761C24E000BFF84900000E
:1009F00097750000A08601000000F03F84D7974162
:100A000068468078672847D130B20321C9438842BD
:100A100048DBA84246DA761C04A8008F1499C0B2BD
:100A2000084203D120B2A84200DC050030B22D1AE2
:100A300000D500250A990798401837B2002F00DD2D
:100A4000B8E0491C0A9130210170002D05DC04A892
:100A5000008F1499C0B2084206D00A98411C0A912E
:100A600069460978079A11547842854200DA6E4245
:100A700036B270420D90AD1920B2854200DA2C00DA
:100A800024B20B942200159907980A9BC01800F015
:100A9000BBFC281B0E90D3E068464078612818D133
:100AA00070201BE020B2A84206DA04A9098F149A2C
:100AB000C9B2114200D105006D1E00D5002568465F
:100AC0004078672802D16520694607E045206946DD
:100AD00004E068464078412801D1502048700A98C7
:100AE000411C0A9115990978079A11541598411CCF
:100AF000002D05DC04A8008F149AC0B2104219D052
:100B00000A98421C0A926A461278079B1A54002DD2
:100B100010DD641E20B2854200DA2C0022B2079854
:100B20000A9BC01800F070FC24B20A9800190A90C1
:100B3000281B0D9007980A9940186946497801705A
:100B400031B2002903D42B214170871C03E02D22F0
:100B50004270871C4E42002414AD300008E00A2188
:100B600000F0FCFD32AA03C229703298641C6D1C8F
:100B700000B20028F3DC012C08DC68464078202114
:100B80000143652902D1302038707F1C002C09D127
:100B9000302038707F1C07E0641E14A8005D3030E0
:100BA00038707F1C002CF7DC07980A994018381A17
:100BB0000B9045E021B232B291421ADA22B2159975
:100BC00000F022FC24B20A9800190A90391B0D91FA
:100BD000002D05DC04A9098F149AC9B2114206D070
:100BE00069460978079A11540B98401C0B900E9592
:100BF00026E0159900F008FC0A98C0190A90A41B79
:100C0000002D05DC04A9098F149AC9B2114205D040
:100C1000411C0A9169460978079A115420B285420D
:100C200000DA2C0022B21598C11907980A9BC01847
:100C300000F0EAFB24B20A9800190A90281B0D90D4
:100C400004A83821405C14210140102901D0FFF78D
:100C50008DFB09980A9940180D9940180B99401876
:100C60000E9940181199884201DBFFF77FFB081AA3
:100C7000FFF700FC04AA3A20105C622808D068281C
:100C80000ED06A2814D06C281DD0712810D01AE01C
:100C9000369801680868091D369B1960C0B218E0D3
:100CA000369801680868091D369B196080B210E00B
:100CB00036980368DB1D072083433698036003CB17
:100CC000369C236006E0369801680868091D369B4B
:100CD0001960002104AB03C3108F1499C0B20842FD
:100CE0005BD004A803C8002901D1002855D068466C
:100CF00000782021014378294FD1099822A9302278
:100D00000A54401C421C09926A4612780A5444E074
:100D100004AA3A20105C622808D068280ED06A28FD
:100D200014D06C281DD0712810D01AE036980168B4
:100D30000868091D369B196040B218E036980168B2
:100D40000868091D369B196000B210E036980368E8
:100D5000DB1D072083433698036003CB369D2B6051
:100D600006E0369801680868091D369B1960C117AE
:100D700004AB03C3002902DA09982D2109E0108F82
:100D8000204202D009982B2103E0C00705D509981D
:100D9000202122AA1154401C099022A80999401828
:100DA00007906846017804A800F01AF9FFF7DEFA08
:100DB00004A83A21405C6C280BD001200990369899
:100DC00000680168001D369A106022A80170FFF7C4
:100DD000CDFA369800680168001D369A10601491AB
:100DE00000201590C043109014AAFFF7EAFA2520BE
:100DF00022A908700120099068460078002801D1D6
:100E0000FFF7B4FA4A700994FFF7B0FAFEB506008E
:100E10000D001700686B6969401A296A401AA969B0
:100E2000401A696A401AE969401AA96A401A019091
:100E30003820285C400710D42020694608700198AB
:100E400000280ADD019C01236A462900300000F0D9
:100E500081F9002860D1641EF5D13A006B69290040
:100E6000300000F077F9002856D130276846077027
:100E70002C6A002C09DD01236A462900300000F0AD
:100E800069F9002848D1641EF5D1AB69EA682900E8
:100E9000300000F05FF900283ED1684607706C6AA8
:100EA000002C09DD01236A462900300000F052F9C8
:100EB000002831D1641EF5D1EB69E868A9694218B0
:100EC0002900300000F046F9002825D16846077057
:100ED000AC6A002C09DD01236A462900300000F0CD
:100EE00039F9002818D1641EF5D13820285C400754
:100EF00010D5202069460870019800280ADD019C61
:100F000001236A462900300000F024F9002803D1AB
:100F1000641EF5D1002001E00020C04303B0F0BD05
:100F2000F0B5A7B004000D0016002F6B002F00D500
:100F3000854F00F065FD696B081803A900220023A6
:100F40000CC1812838D2029206940095002425E035
:100F5000AF4234DB00984069401981280BD30098D8
:100F6000446307AA00990698FFF750FF02900028F3
:100F700025D4009844610098406905902A0001A991
:100F800007A8059BC01800F03FFA05984019009982
:100F900048613068002812D0361D7F1B002F0EDDFF
:100FA00003AA316801A800F0B2F9050004D4306842
:100FB0000028CDD16D1ECBD50020C0430EE0069B8E
:100FC000009C0298002804D107AA21001800FFF70E
:100FD0001DFF002802D100216161616327B0F0BDCF
:100FE000F2B586B0040025696F2901D1082707E012
:100FF000084620210143782901D00A2700E0102764
:101000003C2603CC083C04AA03C26A46127E642A2A
:1010100003D06A46127E692A09D1002907DA04A89A
:1010200003C800220023121A8B4104A80CC004A894
:1010300003C800290DD100280BD1206B002808D14E
:10104000082F3DD13820205C000739D53B263020C1
:1010500035E00294009504A830C8761E0196200061
:1010600029003A00FB1700F0D0FC3032D0B23A2809
:101070000DDA00988255200029003A00FB1700F095
:10108000C4FC04000D0007D1002C05D10AE068461D
:10109000007E8218AF32ECE70298C0680099891987
:1010A0008842DAD3029C009D082F09D13820205CA9
:1010B000000705D5A85D302802D0761E3020A8553F
:1010C0003C20801BA061A919E160216B884206DAEF
:1010D000081A2062208F1D490140218710E0002955
:1010E0000ED53821615C14220A40102A08D1616BA8
:1010F0006269891A226A891A081A002800DD2062AA
:1011000007B0F0BDF8B50026114F04000D000092A5
:1011100014E0C00707D532003B002000290000F092
:10112000ADFB04000D000098401000903000390025
:1011300032003B0000F0A2FB06000F0000980028E0
:10114000E7D120002900F4BDFFFFFF7FEFFF000083
:1011500000002440F8B50024002B11D007000E0039
:1011600014001D002178B068B847B060002809D08D
:10117000F06A401CF0620020641C6D1EF2D1040075
:101180002000F2BD0020C043F9E7F1B40168421825
:1011900041684808131800988068C9071ED5494659
:1011A00040181BE01778521C0770401C761EF9D1BE
:1011B000002C13D01678521C89080D40032D01D144
:1011C0001578521C290271184D424119A41C05D0F2
:1011D0000D78491C0570401C641EF9D19A420FD04D
:1011E0001178521C032503260E4002D11678F61CF6
:1011F000521C0C090F2CD9D114780F34521CD5E78E
:1012000000980C30F2BC7047613807E005E001003F
:1012100061391A2901D20120704741381A288041CA
:10122000C00F704701000939052901D3202801D1D9
:101230000120704700207047010041391A2900D26F
:10124000203070473648704730B45368D41803E0F4
:101250005B1C491E641C401C042B06DA002904D0C8
:10126000057825700578002DF2D1536030BC7047A9
:1012700038B500290ED01D001400FFF7E5FF6168A6
:1012800020006A6B90470122D243811A02D0491E86
:1012900002D004E0012000E00020C04332BD002164
:1012A000616032BD70B50E00110019D01C00050040
:1012B00022003000FFF7C8FF6168049B002D03D1B6
:1012C00020005A6B904704E00A00210028009B6B25
:1012D00098470122D243811A02D0491E02D004E06D
:1012E000012000E00020C04370BD0021616070BD9E
:1012F00080B5DA6B904702BD80B5094BFFF7B8FFA8
:1013000002BD1CB5064C0094FFF7CCFF16BD80B59E
:10131000034BFFF7EDFF02BD0248704700000000DD
:101320007800002040000020C9B202788A4203D031
:10133000401C002AF9D1002070470368002A03D11D
:101340005B1E0360080070471978002902D1002055
:10135000C0437047591C01601878704780B5002859
:1013600001D100BF07A006490B68002B03D0222241
:101370000021984701E000F086FB222002BD00001A
:10138000B8010020636F6E73747261696E742068B7
:10139000616E646C65723A20626164206D6573737E
:1013A00061676500431C0178401C0942FBD1C01AEB
:1013B00070470268531C036011707047C9B2521E17
:1013C00005D30378401C8B42F9D1401E70470020A2
:1013D00070472E0070B4103A03D378C9103A78C021
:1013E000FBD2530701D318C918C001D508C908C0DA
:1013F000D20704D30B880380891C801C002A01D5E6
:101400000B78037070BC70478B0701D18307E1D064
:10141000124205D00B78491C0370401C521EF9D1B2
:10142000704710B5144600F002F8226010BD4A0063
:1014300053155B1C08D0520D06D003231B02FE3A45
:10144000D21A1305C91A70470022704730B401241C
:1014500064054D00EC420BD85D00EC4208D80C004E
:101460001C4364000443144304D2994200D19042C7
:1014700030BC7047FCD08B42FAD18242F8E730B4DE
:10148000012464054D00EC420BD85D00EC4208D805
:101490000C001C4364000443144304D28B4200D16B
:1014A000824230BC7047FCD09942FAD19042F8E7B2
:1014B000124217D40023DB435B0D9C464B005B0DAF
:1014C00006D0634504D09B18634502D212058918E3
:1014D00070476246090D11430905002000B500BFA1
:1014E00000BF00BD52424B005B0DF1D05B1C5B05A1
:1014F000EED25B0D934102D91205891A70470BD1C8
:101500000B031B13C90FC907821C0020434113435F
:10151000E4D912051143E1E7C90FC9070020DDE74F
:10152000F4464A1805D200F00FF801D5801740089C
:10153000604700F009F80121C907884200D9080076
:10154000404260474A1812D2400DC90208430121A7
:10155000C9070843520D40210901521A521C06D4F2
:1015600052421F3201D4D0407047C017704700204C
:1015700070474300010042221201D21E004207D0F0
:1015800002D4521E0018FCD5C10A40051205891864
:10159000704700000100EED54042F446FFF7EBFF34
:1015A0000122D20711436047F0B40125ED070F0077
:1015B0005F404FD48B4200D1824205D9844610004F
:1015C00062468C4619006346DF184C18640D7F0D87
:1015D0003AD0661C760537D0E61B352E34DCDB02AC
:1015E0002B43DB0A0C0DC9022943C912202E0DDB47
:1015F0001700203E06D01F00F741F3405F40002651
:10160000012A7741C01871410DD217E01700F74148
:10161000F2405740F3415A40B340F3405A4000264D
:10162000801859410AD3A21C52050FD0C207012FBE
:10163000724117004008CB0718434908641C240571
:101640004208AF4170416141F0BC7047641C210504
:101650000020F9E76B4010E06B40ABE7F742F3D1B5
:10166000E943F1E72442EFD100200021ECE7F0B498
:101670000125ED070F005F40EED40C00871A9C4156
:1016800005D2C01BA141D219634169406B40AE0A2B
:10169000DF184C18F442E1D2640D7F0DE2D0E61B56
:1016A000362ED1DCDB022B43DB0AA4460C0DC9022B
:1016B0002943C90A012E28DC04D1D6075208DF07C6
:1016C0003A435B08EF0A76429041994114D039427F
:1016D0003BD1B61940414941761C394204D1761CB0
:1016E000001849413942FAD0B9436746B74208D990
:1016F000A41B24052143A7E70042EAD13642E8D1E2
:10170000A2E7E40AE10700209EE7202E0BDD203E41
:101710001F00F340F7415F40012A002257417E42FB
:10172000984191410BE01700F741F2405740F341D7
:101730005A40B340F3405A407E42904199410A03D7
:1017400003D2641EB619404149410027641E240596
:101750004208AE4178416141F0BC7047CA0F00D0E9
:10176000494203105A400DD004B500D3404200F066
:1017700009F8009AD20701D34942124200D54042EB
:1017800004BD0000094214D088420FD30122030C8B
:1017900001D100041204002300185B418B4200D3E6
:1017A0005B1A5241F8D31900100070470100002065
:1017B000704708B500F06CF908BDF0B40E005E404B
:1017C0000125ED072E40B446AE0ADF184C18F4424E
:1017D0003BD2F74241D2640D43D07F0D38D0E41B99
:1017E000C902DB0229432B43CF0ADB0A0600B61AE3
:1017F0009F4104D2641EB6197F41B6185F4168123A
:10180000800D24180018844222DCE80C0021B6194F
:101810007F41B61A9F4102D2B6185F413F1C40413A
:101820004941F4D3241C21DD2405B6197F41B61AA1
:101830009F4105D33743C60737430026012F704128
:10184000614166463143F0BC7047FCD1F74205D296
:101850000020C14349054908F3E704D00020C143F3
:10186000F1E77F0DFAD000206146ECE72442FAD17F
:10187000401C61410F03F6D30020E2E7F0B50E00F3
:101880005E400125ED072E40B446AE0ADF184C1825
:10189000F44208D2F7420ED2640D01D07F0D12D16E
:1018A00000206146F0BD05D1F74201D87F0D05D17A
:1018B0000020C143F0BDFBD1640DF9D00020C1432D
:1018C000490549088FE0E419C902DB0229432B438B
:1018D000DB0A460DC00231438E4630B487B295B262
:1018E0007D432E0CADB2140C7C43A419260C2404A9
:1018F00025439CB27C43A419190C7943270CC919C0
:10190000A4B20F043C43090C000C97B247432E0CC1
:10191000BE193543ADB2170C4743360CBF19A6B2FA
:10192000BF193E043543240C3E0C36199FB2474381
:10193000BF19BCB23E0C89191F0C47437F183E04E7
:101940003443390C704680B297B247432E0CBE190F
:101950003543ADB2170C4743360CBF19A6B2BF19B9
:101960003E043543240C3E0C36199FB24743BF1941
:10197000BCB23E0C89191F0C47437F183E04344308
:10198000390C77463F0C90B278432E0C8019060430
:10199000ADB22E43050CA0B22D18120C7A4350198B
:1019A000020C80B2240CA4189AB27A4312191404BF
:1019B0002043120C89181B0C7B43C91830BCEF0A5A
:1019C000394203D1B61940414941641E6F12BF0D1F
:1019D000E41B0BDBFF19BC4211DA24050027420887
:1019E000AE417841614166463143F0BD641C05D18A
:1019F000401C6141CF0201D34908F4E750E75DE79D
:101A000080B5FFF71FFC006C02BD12422DD0994239
:101A100031D970B500251B4209D00C00002112E01D
:101A20001100FFF7AFFE0A000021002370BD09423C
:101A3000F6D00024012649186441944200D3A41A28
:101A40007641F8D33100012601E0764109D2001831
:101A500064416D41A41A9D41F7D2A4185D41B619A5
:101A6000F5D3300022002B0070BD1B42CFD108B54A
:101A700000F010F808BD01D19042CAD202000B005C
:101A800000210020704780B5012000F005F801BD5D
:101A90007047FEE77047FEE780B500BF00BF024A0F
:101AA00011001820ABBEFBE72600020080B5030042
:101AB0000800C168491CC1600122002100689847E4
:101AC00002BD80B5030008000269521E0261C168B0
:101AD000491C002AC16000D4EEE70020C04302BDCB
:101AE00010B5030008001100C268521E0024E44330
:101AF000A142C26002D000220068984710BD0000D9
:101B0000F0B59FB00024E4430AAD00260027C0C50D
:101B1000029119680391249902ABD9770596049232
:101B20000DA91F311E9101900C9436E100982528D3
:101B30000D9D00D16D1E049C019E0C9F00E0641C55
:101B40006D1E16D40598401C0590012200210298B4
:101B5000B04721788842F2D0020002A93000FFF796
:101B6000BFFF0020B84201DB00F000FE380000F0AB
:101B7000FDFD01960C9704980D994018049000996A
:101B8000252906D101782A290FD1411C049100781A
:101B90000CE00098002800D0FFE00C99884201DB9F
:101BA00000F0E4FD080000F0E1FD002002A9087744
:101BB000002007900BE00798C44A904205DA8200A3
:101BC00010184000401830380790601C0490049CA6
:101BD0002178080030380A28EDD30020C04308904F
:101BE00021783A487844FF301B38FFF79DFB0028E6
:101BF00002D0601C0490207802A9487702A8407F98
:101C0000682807D10498017868290DD1622102AAB9
:101C1000517707E06C2807D1049802786C2A03D129
:101C200071224A77401C049004980178284878442F
:101C30009E30FFF779FB002812D1019C0598401CCB
:101C40000590012200210298A047050000F038FF0E
:101C50000028F3D101942A0002A92046FFF740FF93
:101C6000002002A9887704980078253846D01C38CF
:101C700000D1FDE0001F022800D8F9E00E3857D04F
:101C8000401F00D1C6E3C01E24D0801F00D1EFE06A
:101C9000801E01D100F05BFD401E00D1BAE3401E62
:101CA000022800D8E4E0001F00D1B3E3401F44D075
:101CB000401E012800D8ADE3001F3BD0801E00D19C
:101CC000A8E3C01E00D1A5E300F04BFDB038000032
:101CD000B43800000022D24300F03AFD0C9E249953
:101CE000002901D100F03FFD2221C943884201D0E3
:101CF00000F039FD0020C04300F038FD0598401C7D
:101D00000590012200210298019B9847252835D093
:101D1000019B0C9E0400220002A91800FFF7E0FEC0
:101D20000020C043844201D100F01DFD00F071FC91
:101D30006C204877012200F00BFD02A8007F0028EC
:101D40001CD102A8407F622800D181E068285ED0C3
:101D50006A286CD06C2801D0712868D0039801687B
:101D6000001D0390002907D10024E443584878441B
:101D7000FF305F3000F0E7FC059808600C98002801
:101D800001D500200C9002A8807F002802D00C987A
:101D9000401C0C900498401C0490002000900025EA
:101DA000ED430AAB2A0004996846FFF7AAFA0D90A2
:101DB000002806DC04980078401E8041C043C00F14
:101DC0000D90009800F085FE00F07AFE002800D10A
:101DD000ACE6019C0598401C059001220021029868
:101DE000A047060000F06CFE0028F3D101943200F9
:101DF00002A92046FFF774FEAE4200D0BBE60C9865
:101E0000002801D400F0B2FC280000F0AFFC0398D9
:101E10000168001D0390002906D10024E4432C48EA
:101E20007844AC3000F08FFC05980880A6E7039852
:101E30000268001D0390002A06D10024E4432448D0
:101E400078448C3000F07FFC0598C11703C295E7F9
:101E500003980168001D0390002906D10024E44383
:101E60001B4878446A3000F06EFC0598087085E7DE
:101E70000798002800DC174806900FAC0198FFF780
:101E800020FE00210D912B2801D02D2807D10FA96C
:101E900008700FA8441C02A90198FFF712FE0A213E
:101EA0006A46517000211170302822D102A9019890
:101EB000FFF707FE20220243D2B2782A0CD001217C
:101EC0006A461170019D6946097802E1CBCCCC0CC1
:101ED000BC360000FFFFFF7F30202070782060704C
:101EE000A41C02A90198FFF7ECFD10216A4651706D
:101EF000E8E7202601003143CAB26E2A4AD1002009
:101F0000694648706E202070651C02A90198FFF791
:101F1000D8FD04003043C0B2612800D0B7E128707A
:101F20006D1C02A90198FFF7CCFD04000643F6B230
:101F30006E2E00D0ABE102A90198FFF7C2FD282860
:101F400006D0020002A90198FFF7CAFD6E20B8E092
:101F5000019C0698401E069005D50598401C0590EA
:101F60000026F64304E002A92000FFF79FFD0600CB
:101F70003700300000F0C6FD0028EAD1303E0A2EBE
:101F8000E7D35F2FE5D001943C00292C00D07EE1FF
:101F90006E2096E0C9B2692900D0B0E00020694601
:101FA000487069202070651C02A90198FFF789FD1F
:101FB00004003043C0B26E2800D068E128706D1C68
:101FC00002A90198FFF77DFD04003043C0B26628E6
:101FD00000D05CE10699491E06910598401C002935
:101FE000059005D4012200210298019B984701E049
:101FF0000020C04301003143C9B2692905D0020065
:1020000002A90198FFF76CFD5AE00699491E069156
:102010000598401C0029059006D401220021029851
:10202000019B9847040001E00024E4432000304372
:10203000C0B26E2800D02AE10699491E0691059883
:10204000401C0029059006D4012200210298019B22
:102050009847040001E00024E44320003043C0B26C
:10206000692800D013E10699491E06910598401C85
:102070000029059006D4012200210298019B98476F
:10208000040001E00024E44320003043C0B274287F
:1020900000D0FCE00699491E06910598401C0029D5
:1020A000059006D4012200210298019B9847040064
:1020B00001E00024E4432643F6B2792E00D0E6E0A6
:1020C000662028706D1CEBE002A92800FFF7EEFCEB
:1020D0000121302809D10698401E0690F4D50598B4
:1020E000401C05900020C043F2E701956A4611703C
:1020F00069460978002902D030212170641C00252E
:10210000019F0D9E6946097804E002A93800FFF797
:10211000CDFC01210022D243904225D00200D3B24F
:10212000612B01DBA93209E0412B01DBC93205E05B
:10213000303B0A2B01D2D03200E0FF226B465B78A5
:10214000D2B29A4210D2242D03DA2070641C6D1C86
:1021500000E0761C0698401E0690D6D50598401CD7
:1021600005900020C043D4E70197270004000D9696
:10217000684601700E95FFF7CFF8406A00788442F8
:1021800012D13C707F1C0699491E06910598401C8F
:102190000029059006D4012200210298019B98474E
:1021A000040001E00024E4430E98002825D1019E9C
:1021B00020000D9D6946097804E002A93000FFF770
:1021C00075FC012130280AD16D1E0698401E06902C
:1021D000F3D50598401C05900020C043F1E7019617
:1021E00004000D95684601700D98002805D5302033
:1021F00038707F1C0D98401C0D90019E3D00200002
:1022000069464F7809780E9C04E002A93000FFF778
:102210004DFC01210022D243904222D00200D3B2D1
:10222000612B01DBA93209E0412B01DBC93205E05A
:10223000303B0A2B01D2D03200E0FF22D2B2BA42A8
:102240000FD2242C09DB0698401E0690DDD5059898
:10225000401C05900020C043DBE728706D1C641C07
:10226000F1E7019604006846477001700078002885
:102270000DD020202043694649780A2941D1C0B2B7
:10228000652841D003E001960400684601702200F1
:1022900002A90198FFF724FC68460078002825D0A1
:1022A0000020287002A8007F002800D066E568465C
:1022B00040780A2800DD83E000230D9A00210FA852
:1022C00000F024FD02AC0122A277039B1A1D647F5B
:1022D0006C2C00D081E01B680392002B7BD1002482
:1022E000E44349487844FF3021302CE20C9E0FA88B
:1022F000854200D08DE10020C043844200D088E1B7
:1023000031E2C0B27028C2D12C706D1C0698401EFC
:10231000069011D40598401C0590012200210298D6
:10232000019B98472B2801D02D2813D128706D1CB4
:102330000698401E069005D50598401C0590002083
:10234000C04307E00598401C059001220021029837
:10235000019B98470021019C04E002A92000FFF79F
:10236000A5FB0121302809D10698401E0690F4D51E
:102370000598401C05900020C043F2E726000B00A2
:1023800002D030232B706D1C002404E002A9300021
:10239000FFF78CFB01210200303A0A2A00D372E7D2
:1023A000082C09DB0698401E0690EFD50598401CC6
:1023B00005900020C043EDE728706D1C641CF1E718
:1023C0000023002200210FA800F0A0FC0D9A92002B
:1023D000FFF76EF876E703C3D0E44C2C09D11B68F5
:1023E0000392002BF7D10024E443074878441830C7
:1023F000A9E11C680392002C08D10024E4430248A0
:102400007844001D9FE100BFA031000000F014FDE2
:102410002060B3E40798002801DD401E00E00F486B
:102420000DAC0690002813D40598401C059001229D
:1024300000210298019B98472B2801D02D2817D105
:102440000DA908700DA8441C0698401E069007D5DB
:102450000598401C05900020C04309E0FEFFFF7F67
:102460000598401C0590012200210298019B984785
:10247000002504990978642911D075290FD069299C
:1024800001D100260CE06F2901D1082608E070294F
:1024900003D020220A43782A02D1102600E00A261F
:1024A000302835D10120009001270698401E069063
:1024B000059807D4401C0590012200210298019B39
:1024C000984703E0401C05900020C04320220243AF
:1024D000D2B2782A18D1002E01D0102E0DD110269C
:1024E0000698401E0690059809D4401C05900122CC
:1024F00000210298019B98470027019D11E0401C94
:1025000005900020C04351E0002EF6D10826F4E7E4
:10251000002E19D10A2617E002A92800FFF7C6FAF3
:10252000009F302809D10698401E0690F4D50598E2
:10253000401C05900020C043F2E701953D002906AC
:1025400002D030212170641C019F1DE0412B01DB72
:10255000C93205E0303B0A2B01D2D03200E0FF2225
:10256000D2B2F1B28A4220D21E998C4216D306987A
:10257000401E069001250028059812D4401C0590A5
:10258000012200210298B8470021C94388420CD09B
:102590000200D3B2612BD9DBA932E1E72070641CC1
:1025A000E5E7401C05900020C04301970090009A89
:1025B00002A90198FFF794FA2D0620D00020207080
:1025C00002A8007F002801D0FFF7D8FB049800780C
:1025D000642871D069286FD0320000210DA800F066
:1025E0002BFD02AA01239377049B1B78702B15D136
:1025F000039A1368121D0392002B0CD1A0E00C9ECD
:1026000000990DA8844204D10020C043814200D12A
:10261000A9E00020A7E01860FFF7B0FB527F622A14
:102620003AD0682A11D06A2A26D06C2A06D0712A9C
:102630002AD0742A19D07A2A10D036E0039A136867
:10264000121D0392002BE6D17AE0039A1368121D43
:102650000392002B74D01880FFF790FB039A136845
:10266000121D0392002BD6D16AE0039A1368121D43
:102670000392002BCFD163E0039A1368121D0392DB
:10268000002B00D0A7E65BE0039A1368121D0392AB
:10269000002B00D09FE653E0039A1368121D0392AB
:1026A000002B4DD01870FFF769FB039A1368121DB9
:1026B0000392002BAFD143E0320000210DA800F0BF
:1026C00014FD02AA01239377527F622AE4D0682A7C
:1026D000BBD06A2A1DD06C2A06D0712A21D0742A58
:1026E00010D07A2A07D024E0039A1368121D0392AF
:1026F000002B90D124E0039A1368121D0392002B43
:1027000089D11DE0039A1368121D0392002B82D118
:1027100016E0039A1368121D0392002B00D05AE6AC
:102720000EE0039A1368121D0392002B00D052E6AC
:1027300006E0039A1368121D0392002B00D06AE78B
:102740000024E4430AA0FEF709FE201A03E0002259
:10275000019800F03DF8002801DDFFF70FFBFFF7BF
:10276000BDFA00200C9E002E00D430001FB0F0BD3A
:102770007363616E665F733A2062616420696E7490
:102780006567657220617267756D656E7400000023
:10279000C9B206E0994202DB83788B4213DAC01C8F
:1027A000D21E032A0AD343782D2B0378F2D08B4212
:1027B00009D0401C521EF4E7401C521E002A04D0CF
:1027C00003788B42F8D10120704700207047000049
:1027D000F0B58DB006000F0000240494787F6C28BB
:1027E00002D10120069000E00694039209A800217E
:1027F000002206C00398002826D5B868401CB8609F
:1028000001785E2904D1411CB9600078079000E08E
:102810000792BD6828785D2801D1681C00E0280077
:102820005D21FEF781FD002800D129E1411B0291C5
:10283000B8600298022807DD821E2D21681CFEF771
:10284000BDFD002800D001247869002805DC03982C
:10285000002801D0914800E001203861387F00282D
:102860001CD17868011D0068069A002A796008D09A
:102870000090002812D10024E4430748784418301F
:102880001DE00190002809D10024E4430248784467
:10289000801D283013E000BF142C0000387F002872
:1028A00016D1F87F002813D079680868091D79606F
:1028B00080210906884206D30024E44378A0FEF76D
:1028C0004DFD201AE8E0B969884200D90800B861D6
:1028D00008960C940B95049D002609E0019804705D
:1028E0000198401C0190BD77B869401EB86102256F
:1028F0003969491E3961F868401C0029F86023D401
:10290000012200213868089B984704000020C0433A
:1029100084421CD10898069E22003900FFF7E0F897
:102920000398002803D0E8B2022800D1A2E0E8B260
:10293000022800D1AFE00020C043E90700D5ABE09A
:10294000844200D09CE0A7E00024E443E2E703983F
:10295000002803DD200000F0B3F812E024D50C9825
:102960000028079810D10028029A06D121000B9860
:10297000FEF724FD0028CDD016E021000B98FEF7CD
:102980001DFD0028C6D10FE00028029A06D12100C3
:102990000B98FFF7FDFE002806D1BBE721000B983E
:1029A000FFF7F6FE0028B5D10698002807D1387F3A
:1029B00000289CD10125B86900288FD1AAE704A876
:1029C0008455761C09AB320004A905A8FEF799FCD2
:1029D00001001BD00122D243811A02D0491E06D029
:1029E0001BE0280001250543042E00D280E7002EBD
:1029F00007DD761E04A8825D39000898FFF770F89D
:102A0000F5E72D063CD10020C04345E0059900299B
:102A100003D104A8FEF7C6FC401C0221C94388422A
:102A200000D10020089D3C00070008E0761E04A8A5
:102A3000815DE068401EE06000222068A847B74240
:102A4000F4DB08952700387F00280ED10125B869EE
:102A5000002800D14CE70598009908600098001DF7
:102A60000090BD77B869401EB8617869401E7861F2
:102A7000022531E7387F00280DD1B869002801D13F
:102A8000002009E0002E03D000200099086002E039
:102A900000200199087001200DB0F0BDFFFFFF7FFD
:102AA0007363616E665F733A206261642025632CF4
:102AB0002025732C206F7220255B2073697A6500B6
:102AC00010B50400FEF7BEFB01002000096A88472C
:102AD00010BD30B583B005000024E443A5420BD0FF
:102AE0000822002101A800F005FB01AA2900684680
:102AF000FEF70DFC012801D0200001E068460078B7
:102B000003B030BD10B50400FEF79CFB01002000AF
:102B10000969884710BDFEE7FBB584B0002A00D1E3
:102B2000EAE004A803C877A430CC04400D4002D1E9
:102B3000002C00D1E0E0080041004915491C02D1F9
:102B4000000300D1D8E00020B349002A5AD55442EE
:102B50002B4D7D44AA3508260AE0E20705D5020080
:102B60000B0003CD083DFEF789FE64080835761E8C
:102B7000002C01D0002EF0D106000F006A4604A8F8
:102B800003C8FEF74EFC009D32003B00FEF715FE29
:102B90002A00FEF78DFC04AA03C25AA6C0CE04A8E0
:102BA00003C8394002D1002800D18CE004A803C832
:102BB000080041004915491C02D1000300D182E000
:102BC000002C00D17FE004A803C86A46FEF729FC68
:102BD000009D92A20CCAFEF751FE2A00FEF768FC87
:102BE00032003B0002400B4001D1002A69D04B006B
:102BF0005B155B1C01D10A0363D0641E61D0E4E75E
:102C0000F82800005FDD3E4D7D44FF350B3D082672
:102C1000012714003C4205D002000B0003CD083D03
:102C2000FEF72CFE64100835761E002C01DD002E08
:102C3000F0D1260004000D006A4604A803C8FEF780
:102C4000F0FB009F22002B00FEF718FE3A00FEF773
:102C50002FFC04AA03C22BA003C802AA03C204A823
:102C60000CC802A803C81040194001D100282AD07E
:102C700004A803C8080041004915491C01D10003FC
:102C800021D0002E1FDD04A803C834006A46FEF7D9
:102C9000C8FB009D63A20CCAFEF7F0FD2A00FEF7F8
:102CA00007FC02AA0CCA02400B4001D1002A08D03E
:102CB0004B005B155B1C01D10A0302D0641E002C83
:102CC000E4DC04AA03C204A803C80EA20CCA024092
:102CD0000B4001D1002A06D0080041004915491CCB
:102CE0000AD1000308D1069C00BF00BF002C03D00E
:102CF000206801210143216004A803C807B0F0BD8A
:102D0000F8270000FFFFFFFFFFFFFF7FF9B587B047
:102D10001500002B01D0002018600E00079C07A8AA
:102D200000F0F2F90107CA0F0592082188430495C3
:102D3000012829D10220009001AB32000799200020
:102D400000F06EFA050002D10020002117E0029881
:102D5000FEF720FC022D12DB01AC08346D1E0022B0
:102D6000324BFEF78BFD06000F002068FEF712FCC9
:102D700032003B00FEF718FC241D6D1EEFD1089BAE
:102D8000049A019C12192EE002282FD1009001AB69
:102D900032000799200000F02DFB050002D1002031
:102DA00000211BE00298FEF7F5FB022D16DB01ACBB
:102DB00008346D1E02000B0000201D49FEF75EFD69
:102DC00006000F002068FEF7E5FB32003B00FEF72F
:102DD000EBFB02000B00241D6D1EEDD1019AFEF7E6
:102DE00067FB089B049AFFF797FE0CE0032802D1CB
:102DF0000020104907E0042803D10020C043410807
:102E000001E000200021059A002A02D0802212064B
:102E1000514009B0F0BD00000000F03F436FAC64CA
:102E20002806C80A3CBF737FDD4F157565CDCD41BF
:102E30000000B0410000F07F012252054B18DA4239
:102E400001D9581570475B0D0722D2019B1A10D982
:102E5000FF2B1DD2DB050122D2070A4013430903D1
:102E6000020D1143490AC200524100D9491CC81839
:102E700070470AD1800A0A0302435212921C04D9F5
:102E8000D3070B40D00518437047C80FC0077047E1
:102E9000C80F0002FF30C0057047FEE7FCB589B0DF
:102EA0000C001500002B01D000211960049006468B
:102EB00000E0761C3078FFF703FE0028F9D1307867
:102EC0002D2801D02B2803D169460870761C02E01A
:102ED0002B20694608700194002D03D4012D01D0E8
:102EE000252D04DB002C64D00498206061E0002DC7
:102EF0000ADD102D16D13078302813D170782021BA
:102F0000014378290ED10AE03078302801D00A2513
:102F100008E0707820210143782902D11025B61CE1
:102F200000E00825089600E0761C30783028FBD0B9
:102F30000020002106AA03C205963C4B7B44FF33C8
:102F4000133B28336C466370039506AB30CB06AB5E
:102F500003C30290354F7F44FF372D3F11E006A990
:102F600030C169464978401AC0B202902000290059
:102F7000039AD31700F05AFB029C002524184D41F8
:102F8000761C307800F06BFB039A01003800283083
:102F9000FEF714FA0028E2D1039A0396029E0898DD
:102FA0000399884208D10198002802D00498019919
:102FB00008600020002137E008460599401AB95CF6
:102FC000401A00281ED412DCF6B200272900A01BEC
:102FD000B9418D420BD301D8844208D3D317FEF7F1
:102FE00014FD06AA0CCA994201D190420AD000BF32
:102FF00000BF0A98002802D001200A9908600CA49A
:1030000030CC09E0684600782D2805D10020002149
:10301000001BA94104000D000198002802D003986C
:1030200001990860200029000BB0F0BD3024000099
:10303000FFFFFFFFFFFFFFFF80B50023FFF72EFF1D
:1030400004BDF7B50D001E00002D00D16D460190A6
:10305000044600E0641C2078FFF732FD0028F9D117
:1030600027782D2F01D02B2F06D1641C2078FFF755
:1030700027FD00280AD100E02B27029A33002900FF
:103080002000FFF70BFF2A68944204D101982860C2
:103090000020002109E02B2F09D180231B06994233
:1030A0000FD202000B001000190003B0F0BD2D2F4D
:1030B000F7D1012280231B06994211D301D89042F7
:1030C0000ED300BF00BF002E01D0012030602D2F95
:1030D00002D100201946E8E70020C0434108E4E798
:1030E00000220023121A8B41DDE780B50023FFF791
:1030F000A8FF04BD10B50400080011000200200064
:1031000000F0B6FA200010BDF1B582B00E000468E0
:103110000027002500E0641C2078FFF7D1FC002880
:10312000F9D120782D2801D1082501E02B2800D1E4
:10313000641C2178202020220A4300966E2A25D183
:1031400061780143612903D1A17808436E2802D038
:103150000298046815E0E41C250004272878282834
:103160000FD16D1C2E783000FFF7CCFC0028F8D171
:10317000303E0A2EF5D328785F28F2D0292800D1D6
:103180006C1C0098002846D0046044E0692A26D1CF
:10319000617801436E2903D1A1780143662902D0E9
:1031A0000298046817E0E41C03272F4321780143A9
:1031B000692910D1617801436E290CD1A1780143AE
:1031C000692908D1E1780143742904D121790843A0
:1031D000792800D1641D002E1DD034601BE03029F9
:1031E00017D161780843782813D1A01C01782E29C3
:1031F00000D1401C007801006139062906D3010086
:103200004139062902D330380A2802D2A41C0227E9
:1032100000E001272F4302980460380003B0F0BD9E
:10322000F5B591B00D001900189A00200290D30056
:103230009A182D2A00DD2D220860486000270123FE
:1032400001E06D1C01272C78302CFAD00026009369
:1032500005AC18920FE00A68521C0A602A78302ADE
:1032600007D0009805E0189B9E42F4DAD032A255B0
:10327000761C6D1C009F2A781300303B0A2BF2D37A
:1032800001910390FEF748F82978406A007881425E
:1032900000D16D1C002E01980ED1297830290BD158
:1032A0000168491E01606D1C009FF6E7302901D0BE
:1032B000009903916D1C009F29780A00303A0A2A70
:1032C00009D2189A9642F1DAD031A155761C0168DC
:1032D000491E0160EEE701951899039A0397002AA9
:1032E00004D0621E525C521C631E5A54050007E053
:1032F000601E805D002809D12868401C2860761E69
:10330000002EF5DC02D100202070009E03980028DA
:1033100060D000200490092430000921FEF71EFA35
:10332000641A20000921FEF719FA002901D000983B
:103330000290029F0296049E18E0B80028180168C7
:103340008A0051184900009A891801600CE005A80C
:10335000805D009020000921FEF700FA0029ECD1E1
:103360007F1C0098B9006850641C761C0298864245
:10337000EDDB02970198007820210143652929D1CE
:10338000019800900198431C1C782B2C01D02D2C07
:1033900001D15B1C00E02B240026002109E0144E23
:1033A000B14204DA8E0071184900091830395B1CEB
:1033B000012618780700303F0A2FF0D301932D2CF7
:1033C00001D148420100286840182860002E01D130
:1033D000009801901299002906D00398002801D086
:1033E000019800E011980860029813B0F0BD00BF8A
:1033F00000E1F505F5B58FB0169800220392C200E2
:10340000101A232800DD232000221A605A600026AB
:1034100001E0491C01260C78302CFAD0002400BFB2
:1034200076A20092012202920D001F00169010E079
:103430003868401C38600AE01699A142F8DB00BFEA
:1034400074A1009A801A085C05A90855641C6D1CBB
:10345000029E00BF69A016222978FDF7AFFF002861
:10346000EAD1049701962700FDF756FF2978406AB4
:103470000078814200D16D1C002F0BD12C00049EDE
:10348000019D2078302819D13068401E3060641CBE
:10349000029DF6E72C00049E019D0FE01699B942AB
:1034A0000ADB00BF5BA1009A801A085C05A9C85519
:1034B0007F1C3068401E3060641C029D16222178FB
:1034C0004EA0FDF77BFF0028E8D1009416980195E7
:1034D000B84218DA05A9095C072906DD05A9491EC5
:1034E000095C491C05AA521E115407003068401C93
:1034F000306008E005A8401EC05D00280AD1306891
:10350000401C30607F1E002FF4DC03D10020694690
:103510000875029F306880003060019800285ED0F6
:1035200000200490072438000721FEF717F9641AD9
:1035300020000721FEF712F9002901D0029803901C
:10354000039D0397049F16E0A80030180168090145
:10355000029A891801600CE005A8C05D0290200065
:103560000721FEF7FBF80029EED16D1C0298A90097
:103570007050641C7F1C03988742EDDB0395009814
:10358000007820210143702929D1009802900098E9
:10359000431C1C782B2C01D02D2C01D15B1C00E08E
:1035A0002B240025002109E0134DA94204DA8D00E7
:1035B00069184900091830395B1C01251878070083
:1035C000303F0A2FF0D300932D2C01D14842010047
:1035D000306840183060002D01D102980090109999
:1035E000002906D00198002801D0009800E00F982B
:1035F0000860039811B0F0BD00E1F50530313233B9
:103600003435363738396162636465664142434414
:1036100045460000000102030405060708090A0BDD
:103620000C0D0E0F0A0B0C0D0E0F000030B44343AF
:1036300051435D18010C0C00130C5C432D1980B232
:10364000434392B251430024C918644124040B043B
:10365000090C09195043C018694130BC704710B5B6
:103660000400FDF7EFFD01002000896A884710BDC6
:103670001206130A1A43130C1A4300BF094205D05D
:10368000830705D00270401C491EF9D17047000025
:103690001300103906D330B41400150010393CC0A3
:1036A000FCD230BC490700D30CC000D504C089004F
:1036B00002D30280801C002900D502707047FEE70B
:1036C000FEB5060057D0B64CE0680C2101400091D1
:1036D000E06880214902084001903078C0070ED58B
:1036E0004F000098082804D00C2867D10198884220
:1036F00064D12068074002D0706800283BD0307841
:1037000080072AD5F068BA4F0921C943009A042AD4
:1037100005D00C2A01D1019A002A00D089E0226844
:10372000520701D5002826D062681740326912027C
:103730003A436260226811400843206000F0B6FA04
:10374000AC49E2681206120F895CC840BD490860A6
:10375000002000F029FB01002FD13078C00600D4F2
:10376000B3E0B94F0098002800D08FE020688005B2
:1037700003D5F069002800D1D7E160680740706A7E
:103780003843606060680002000A316A090601433C
:1037900061600120716A490B491C8840C00395494A
:1037A000E2681206120F895CC840A6490860002032
:1037B00000F0FAFA010000D187E0FEBD706888428F
:1037C00001D1206809E0A021C9028842206806D101
:1037D0007900014321602068790801430AE0B24979
:1037E0000140216020687908084002900298206812
:1037F000AE4901402160706800280DD000F00CFB3C
:1038000005002068384000D079E700F005FB401B38
:103810006528F6D30320FEBD00F0FEFA05002068FF
:10382000384000D16BE700F0F7FA401B6528F6D36B
:10383000F0E704220192002817D0226811400843C3
:10384000206000F0E9FA050020680199014005D1E7
:1038500000F0E2FA401B0228F6D9DBE76068074077
:10386000306900023843606077E7206801218843AF
:10387000206000F0D1FA0500206801990140F3D0E2
:1038800000F0CAFA401B0228F6D9C3E7F069002805
:10389000206831D0A10D0143216000F0BDFA050080
:1038A0002068800505D400F0B7FA401B0228F7D93C
:1038B000B0E760680740706A384360606068000283
:1038C000000A316A0906014361603078000731D58A
:1038D000022770690028206D1DD001210143216558
:1038E00000F09AFA0500206D384023D100F094FAD8
:1038F000401B0228F7D98DE78E490140216000F076
:103900008BFA050020688005DFD500F085FA401BA2
:103910000228F7D97EE701218843206500F07CFA70
:103920000500206D384005D000F076FA401B0228D3
:10393000F7D96FE73078400765D5002001908020E7
:103940004005A16B014004D1A16B0843A063012095
:103950000190794F3868C0050FD43868A10D014334
:10396000396000F059FA05003868C00505D400F048
:1039700053FA401B6528F7D34CE7B268A10D8A4281
:103980000AD06E48002A0DD0A023DB009A4209D14C
:10399000206D8A0002432265206D0143216508E005
:1039A00000100240216D634A0A402265216D0840E3
:1039B0002065670DB06800280CD000F02DFA0500D6
:1039C000206D384018D100F027FA401B5C4988422E
:1039D000F6D31FE700F020FA0500206D38400BD029
:1039E00000F01AFA401B56498842F6D312E700BF8E
:1039F000FFE0FFFF405400080198002803D0A06BAF
:103A0000A6490140A1633078800633D5A448022737
:103A1000B16900291AD00121A2680A43A260626B31
:103A2000114361630168420C0A43026000F0F4F93B
:103A30000500A06838401DD100F0EEF9401B0228B7
:103A4000F7D9E7E60C000020FF1FFFFFA168012265
:103A50009143A1600168934A0A40026000F0DCF9DA
:103A60000500A068384005D000F0D6F9401B0228B8
:103A7000F7D9CFE6B06A002859D000990C293FD079
:103A80008025AD048849022820682BD1014021609F
:103A900000F0C2F907002068284009D000F0BCF906
:103AA000C01B0228F7D9B5E6FFFFFEFFFFFFFBFFB3
:103AB000E0689D490140F06A0843316B0143706B37
:103AC0000843E060206869080143216000F0A4F920
:103AD0000600206828402AD100F09EF9801B0228A9
:103AE000F7D997E60140216000F096F906002068BA
:103AF00028401CD000F090F9801B0228F7D989E6F5
:103B0000012812D0E068802149020140F26A914206
:103B10000BD1F02189030140326B914205D1C021C4
:103B200009040140706B814201D00120FEBD0020DC
:103B3000FEBD0000FFFEFFFF00700040FFFBFFFF27
:103B400089130000F8B5040032D000917C48006869
:103B5000C107C90F009881420CD27948016801223F
:103B60009143009A0A4302600068C107C90F009898
:103B700081426FD1734D2078800705D5E868F02128
:103B80008843A1680143E96001272068384051D08B
:103B90006068022802D12968890308E0032802D15D
:103BA0002968890103E00128296802D1490702D464
:103BB00050E089054ED5E968032291430843E86047
:103BC00000F02AF90600606802280CD1E8680C2190
:103BD000014008292ED000F01FF9801B6849884257
:103BE000F4D30320F2BD03280BD1E8680C21014077
:103BF0000C291FD000F010F9801B61498842F4D3D2
:103C0000EFE701280BD1E8680C210140042911D00D
:103C100000F002F9801B5A498842F4D3E1E7E868D2
:103C20000C21014006D000F0F7F8801B544988426F
:103C3000F5D3D6E74248009902683A4091420BD248
:103C40000168B943009A0A4302600068074000987F
:103C5000874201D00120F2BD2078400705D5E868F1
:103C600048490140E0680843E8602078000706D52D
:103C7000E868454901402069C0000843E86000F059
:103C800015F84249EA681206120F895CC84040499B
:103C90000860002000F088F8F2BD0000FFFFFFEF91
:103CA00020000140FFDFFFFFFFFFFFFEF0B5254DC5
:103CB000E968394A9308102654080C200840042863
:103CC00004D0082809D00C2809D01DE02868064037
:103CD00001D01800F0BD1000F0BD2000F0BD2F484D
:103CE0008F023F0FC05D0902890F491CEF68FF0377
:103CF00001D5604305E02C68264001D0584300E020
:103D00005043FDF73FFDF0BD686801210004400FFE
:103D1000401C8140C803F0BD1D48006820491D4A71
:103D20001268520508E00000FFFF02FF1848006813
:103D30001B49184A12689204520F895CC8407047A8
:103D4000002002400010024010B50F220260114A0C
:103D500013689B079B0F43601368F0241C4084602A
:103D6000E023DB0014681C40C4601268D2081340D2
:103D700003610C480068C207D20F0A6010BD000042
:103D800089130000FFF8FFFFFFC7FFFF4054000842
:103D90000C0000200C1002400024F40050540008D5
:103DA000C85600080020024010B586B0010000226D
:103DB000112000F054F8112000F055F81148016866
:103DC00010220A430260694601A8FFF7BDFFFFF712
:103DD000A3FF0D4C0D4921600D49E1600D49FDF730
:103DE000D1FC401E606000202061A060200000F037
:103DF00047F8002803D1200000F058F800E0012027
:103E000006B010BD381002404001002000100040F4
:103E1000E703000040420F0001484068704700BFC0
:103E20000000002010B5C20018231340FF249C405E
:103E3000E2438907090E9940030007D50D4B00079F
:103E4000000F083880088000181803E00A489B0813
:103E50009B00C01803681A401143016010BD80B573
:103E6000FFF7E0FF01BD0121C006C00E81400348FD
:103E7000016070471CED00E000E400E000E100E0BC
:103E800010B5040001D1012010BD3920205C0028AC
:103E900004D138216054200000F0F5FA02203921C5
:103EA0006054211D206800F0BDF932E00068012156
:103EB000C2680A43C26082685207520F062A02D0C3
:103EC0000268114301600020704710B5040001D161
:103ED000012010BD3920205C002804D13821605415
:103EE000200000F019FB022039216054211D2068B8
:103EF00000F098F90DE010B504002EE02068006A8B
:103F00000749014005D120680068012188432168E4
:103F10000860012039216054002010BD000000001D
:103F2000111100000400080006D0042908D0082957
:103F30000AD00C290CD010E02068C26802230AE0E5
:103F40002068C268042306E02068C268082302E0F3
:103F50002068C26810231343C3600122206800F068
:103F600031FA206881684907490F062903D00168A2
:103F700001220A430260002010BDF8B50400206849
:103F8000002502260169314015D0C168314012D0A8
:103F90000221C9430161012121768069800703D094
:103FA000200000F0BAFA05E0200000F0B7FA200087
:103FB00000F0B5FA2576206804270169394016D04B
:103FC000C168394013D00421C94301612676806954
:103FD000C0218900014003D0200000F09EFA05E0D6
:103FE000200000F09BFA200000F099FA2576206866
:103FF00008260169314014D0C168314011D0082130
:10400000C94301612776C069800703D0200000F012
:1040100084FA05E0200000F081FA200000F07FFA29
:1040200025762068102102690A4016D0C268114026
:1040300013D01021C94301612676C069C0218900CF
:10404000014003D0200000F068FA05E0200000F0F5
:1040500065FA200000F063FA2576206801210269E4
:104060000A4008D0C268114005D00121C94301614E
:10407000200000F09DFA2068402102690A4008D023
:10408000C268114005D04021C9430161200000F001
:10409000A8FAF1BDF8B504003820205C012801D150
:1040A0000220F2BD01203823E05402203923E054DD
:1040B0002B4F86020D00002A06D0042A15D0082AAC
:1040C00025D00C2A34D044E0206800F0D2F82068D3
:1040D000816908220A438261206881690422914330
:1040E000816120688169EA680EE0206800F0D7F8F5
:1040F000206881690E438661206881690F4087616D
:1041000020688169EA6812020A43826121E020681E
:1041100000F0DDF82068C16908220A43C261206806
:10412000C16904229143C1612068C169EA680EE057
:10413000206800F0E3F82068C1690E43C66120687A
:10414000C1690F40C7612068C169EA6812020A4369
:10415000C261012039216054002038216054F2BD31
:10416000FFFBFFFF70B504003820205C012801D15F
:10417000022070BD26003836012535700220392214
:10418000A05420688268264B1340836008680200B0
:104190003CD010283AD0202838D0302836D04028BB
:1041A0002DD050281DD0602822D0702803D06B035A
:1041B00098420AD02EE0CB684A688968206800F0EF
:1041C000E1F820688168772208E0CB684A6889684E
:1041D000206800F0D7F820688168AA030A4382604B
:1041E00018E0CA684968206800F0A1F850210EE084
:1041F000CA684968206800F0ABF8602107E0CA6827
:104200004968206800F093F8402100E00100206830
:1042100000F0B0F8392025540020307070BD000047
:104220008800FFFF70B502685C4B5D4C8025ED0592
:10423000A84203D0A04201D0984208D17026B243D0
:1042400016004A683243A84203D0A04201D09842E7
:1042500003D1544B1340CA681A4380239A430B6915
:10426000134303608A68C262096881620121416167
:1042700070BD30B5026A01239A430262036A426844
:1042800085697324A5430C682C430225AB438D68D4
:104290001D434260846149684163056230BD30B5A9
:1042A000026A10239A430262026A436884693E4D9F
:1042B00025400C6824022C432025AA438D682D013B
:1042C00015434360846149688163056230BD30B540
:1042D000026A364B13400362046A4268C56973235D
:1042E0009D430B682B43324D25408C6824022C43A0
:1042F0004260C3614968C163046230BD30B5026A7F
:104300002C4B13400362036A4268C469264D254062
:104310000C6824022C43284D1D408B681B032B4343
:104320004260C46149680164036230BD000030B579
:10433000036A046A0125AC4304628469F025AC4336
:104340001201224382610A2293431943016230BD64
:1043500030B5036A1024A34303628469036A174DCE
:10436000254012032A438261A02293430901194385
:10437000016230BD826870239A43114307220A43C9
:104380008260704730B584680D4D254029430A434B
:1043900019021143816030BD00000000001401408B
:1043A00000080140FFFCFFFFFF8CFFFFFFFEFFFF47
:1043B000FFFDFFFFFFEFFFFFFFDFFFFFFF0FFFFF2F
:1043C000FF00FFFF10B5C906C90E036A01248C4027
:1043D000A3430362036A8A401A43026210BDFEE7E8
:1043E00038B58AB01022002106A8FEF783FE082205
:1043F00000216846FEF77EFE1022002102A8FEF78B
:1044000079FE414C4148206000256560A560FA2096
:10441000C001E0602561802060612000FFF730FD71
:10442000002801D000F0DCF880204001069006A9A9
:104430002000FFF797FE002801D000F0D1F82000FF
:10444000FFF743FD002801D000F0CAF80095019560
:104450006946200000F0C6F8002801D000F0C0F83E
:1044600060200290039504950595002202A9200082
:10447000FFF710FE002801D000F0B2F8200000F095
:1044800016F80BB030BD00682049884200D0704754
:1044900080B51F48016804220A43026000220021FF
:1044A0001420FFF7DCFC1420FFF7DDFC01BD10B584
:1044B00086B004001422002101A8FEF71BFE20682C
:1044C000124988421DD1012012490A6802430A603C
:1044D0000968084000900098042001900220029092
:1044E000002003900490059001A9A020C00500F0D1
:1044F0009BF8054C00212000FFF7FDFC2000FFF792
:10450000D5FC06B010BD00007C0100200008014071
:10451000341002402C1002407047704770477047BB
:1045200080B500F051F900F009F800F061F900F0F1
:1045300095F9FFF755FF00F015FAFCE738B59CB088
:10454000382200210EA8FEF7D5FD1422002168466E
:10455000FEF7D0FD2422002105A8FEF7CBFD1C4864
:1045600001681C4A0A40C10C1143016001240E94E9
:1045700020040F90022118911990C02000031A9076
:1045800048051B900EA8FFF79BF80F200090032012
:104590000190002502950395049501216846FFF7D7
:1045A000D1FA0594089505A800F04AFA1DB030BD6F
:1045B00010B5040020680849884201D100F022FBB0
:1045C00020680649884201D100F0A3F910BD00001F
:1045D00000700040FFE7FFFF0010004000080140AE
:1045E00070477047F0B53822825C012A01D1022061
:1045F000F0BD0200383201231370022439254455DE
:1046000004686568A6688027BE434F6837437026F4
:10461000B54309682943616001688F6039214354BB
:1046200000201070F0BDFEE7FFB5002201230193CA
:104630002BE0062603E05D4EB042FAD10526AE40DF
:104640002643029C26605A4C2668DC4326404D686F
:10465000ED0300D51E43564D2E606E6826404F6810
:10466000BF0300D51E436E60AE6826404F68FF0250
:1046700000D51E43AE60EE6834404E68B60202D5E7
:1046800026001C003443EC60521C0B681C00D44014
:1046900000D183E0019D95402B40F5D054000327C5
:1046A000A740FE4302964E68012E05D0022E03D08D
:1046B000112E01D0122E0FD18768029E3E40CF6886
:1046C000A740374387604668AE434D682D09019F78
:1046D0002F40974037434760C568029E2E408D6843
:1046E000A5403543C56095006E4675704D68022D36
:1046F00001D0122D1AD1D508AD0045192E6A0396A6
:104700006E4677781C263E406F463E70039EB44648
:104710000F276E463678B7406646BE43B4460F69EB
:104720006E463678B740664637432F6207680326E1
:10473000029D3D404F683740BC4627006446BC4060
:104740002C4304604C68E4009ED51A4C2468019DFB
:104750002543184C2560184C9508AD006419029447
:10476000029C24686D466F780C253D400F27AF40B2
:10477000BC43A027FF05B84201D100265FE70F4FD9
:10478000B84201D1019E5AE70D4FB84201D102262D
:1047900055E70C4FB84200D04DE750E7FFBD002A67
:1047A00001D081617047816270470000001C005099
:1047B0000004014034100240080001400004005091
:1047C00000080050000C005010B500240748016894
:1047D00040220A4302600020FFF7E6FA002801D0D9
:1047E000012401E000F016FA200010BD0020024074
:1047F00070B586B01422002101A8FEF77BFC0421CD
:10480000144802680A43026002681140009100994E
:10481000802102680A4302600268114000910099F9
:104820000124016821430160006820400090009845
:104830006503094E002229003000FFF7B0FF019503
:10484000029400200390049001A93000FFF7ECFED1
:1048500006B070BD2C1002400008005080B5214801
:1048600021490160E1214902416000218160C1606C
:1048700001610C2242618161C1610162416200F00B
:10488000DFF9002801D0FFF7ABFE01BD10B586B0FF
:1048900004001422002101A8FEF72CFC2068124914
:1048A00088421DD1114881688022D2010A4382606A
:1048B000012102680A4302600068014000910098EB
:1048C000C020C0000190022002900020039003202D
:1048D00004900420059001A9A020C005FFF7A4FEC4
:1048E00006B010BDC0000020003801402C1002406E
:1048F00000B56421002801D5002002E0642800DD15
:104900006420454AD2685043FCF73CFF4349C860E5
:1049100000BD10B54148C3695A1CFA24A400A34243
:1049200002DB002201230361C2613D4AC368002B00
:1049300007D43C498161C16811600021C943C1604D
:1049400010BD8369002B0AD14369DB1C324CE4683B
:104950009C4200D2002343611846106010BD5B1ECC
:10496000836110BDFEB500262C4D286900282FD08C
:104970002E612B48006800F093FC00F0A1FC00229F
:10498000294BFCF77BFF009001912348C06800F0A1
:1049900087FC00F095FC02000B0000980199FCF7E1
:1049A0000CFFFEF749FA00F08BFC02000B0000BF81
:1049B00021A12800243000F09DFC28002430FCF7C1
:1049C000F1FC1A4B82B229002431194800F06EF92B
:1049D0002C6A174F0BE02E5500246A4615A12800BB
:1049E00000F0A8FC002802D00098FFF781FF002308
:1049F00001222919380000F0CAF900280AD1285DDF
:104A00000D28E8D00A28E6D00028E4D0092CEEDAF8
:104A1000641CECE72C62F7BD7C0100201000002034
:104A2000340801408813000000005940FFFF0000D7
:104A3000C000002025640000252E31660D0A00000C
:104A4000FEB50400644D206882210901014000D1B7
:104A500089E00020019080204005A96B014004D12D
:104A6000A96B0843A86301200190AF0D5B48006863
:104A7000384013D1594800900068384300990860C5
:104A8000FFF7CAF9060000980068384006D1FFF722
:104A9000C3F9801B6528F6D30320FEBD2868C0211A
:104AA000890301406068C02292030240914205D10F
:104AB000A268C0239B03134099420BD0C0218902F6
:104AC0000140C0229202914204D12968890301D594
:104AD0000120FEBD2A6DC0218902114029D0C022CB
:104AE00092021040814202D02078800606D4A0684D
:104AF000024091421DD0206800051AD5296D384822
:104B00000840296DFA020A432A65296D354A0A4090
:104B10002A65286507400CD0FFF77EF90600286D4E
:104B2000800506D4FFF778F9801B2F498842F6D319
:104B3000B2E76168C020800202000A40824206D1CA
:104B40002A682A4B134002010A401A432A60296D41
:104B500062681040084328650198002803D0A86BBC
:104B600023490140A9632078C00705D5E86C0321DB
:104B70008843E1680143E9642078800705D5E86C43
:104B80000C21884321690143E9642078400705D559
:104B9000E86C1849014060690843E8642078000720
:104BA00005D5E86C14490140A0690843E864207801
:104BB000400605D5E86C11490140206A0843E864C5
:104BC0002078000605D5E86C0D490140E0690843EE
:104BD000E8640020FEBD00000010024000700040AC
:104BE000FFFFFCFFFFFFF7FF89130000FFFFCFFF70
:104BF000FFFFFFEFFFF3FFFFFFCFFFFFFFFFFFFB15
:104C0000FFFFF3FF0248416802788918416070474E
:104C10000000002080B50948016801220A430260B3
:104C20004168802252050A4342600022002104208C
:104C3000FFF715F90420FFF716F901BD3410024003
:104C400038B5040014D0250070356868002803D1F9
:104C500028702000FFF71AFE242068602068016891
:104C6000012291430160200000F01CF9012801D1CC
:104C7000012032BD606A002802D0200000F024FA32
:104C800020684168084A0A404260206881682A22F8
:104C900091438160FFE72068016801220A430260B6
:104CA000200000F077FA32BDFFB7FFFFFEB5070026
:104CB0001C0070304068202867D10D000BD0160012
:104CC00009D0B86880214901884206D13869002896
:104CD00003D1E80701D50120FEBD7020385C012812
:104CE00053D0012070217854002039007031C86001
:104CF0002120390070314860FFF78EF850217E5234
:104D0000390050314E80B96880225201914206D15B
:104D10003969002903D1019402900C0011E02900A7
:104D20000025F8E721788162641C07E03868002CD0
:104D3000F8D12988C905C90D8162AD1C7088401E53
:104D400070803E005036708800280AD0019800908C
:104D5000029B00228021380000F04BFA0028E5D0A9
:104D600009E0029B0198009000224021380000F0E9
:104D700040FA002801D00320FEBD38007030202109
:104D80004160002101700020FEBD0220FEBDF8B58B
:104D900084B007001C005830006A20287CD10D0028
:104DA0000DD068460280002A09D0B86880214901E8
:104DB000884206D13869002803D1E80701D50120CF
:104DC0006BE03E005836307E012865D001203076F9
:104DD0000020706222203062FFF71EF869460988C1
:104DE0003180694609887180BA68FF2180235B01A0
:104DF0009A4204D13A69002A14D1294912E07F234A
:104E0000002A03D13A69002A07D10BE08021490525
:104E10008A4206D13969002901D1B38003E03F21DC
:104E200000E00021B180390058318988BA688023B8
:104E30005B019A4208D13A69002A05D12E000394F9
:104E400002900191150011E02A000026F7E70140C9
:104E500029706D1C07E03868002D406A0199F6D171
:104E600001403180B61C6088401E60803C00583490
:104E7000608800280BD003980090029B002220211C
:104E8000380000F0B6F90028E5D0032005E0202026
:104E900020620020207600E0022005B0F0BD000076
:104EA000FF010000F8B505001022102300200024A7
:104EB0002E6831687D4F0F40A96839432F690F4331
:104EC00069693943EF690F4337607768784939403A
:104ED000EF680F437760A969009176498E4203D04D
:104EE000009F296A39430091B76873493940009F90
:104EF0000F43B76071498E4221D17149C96C89074E
:104F0000890F04D0022928D03FD3032939E0012397
:104F100000936C4E6A4BE969D702B942009900D000
:104F20008FE0002908D0012967D0022968D0042920
:104F30006FD0082973D07AE0FEF7EEFE6BE094495B
:104F40008E420CD15E49C96C0C270F401BD0042F38
:104F50001BD0082F01D00C2F13E0022318E0554975
:104F60008E4215D15649CF6CC021090139400AD073
:104F70009701B94209D0D701B942EED0C0273F010D
:104F8000B94204D004E0002302E0042300E0082337
:104F900048498E42BCD1002B06D0022B11D0042BE5
:104FA00017D0082B18D07BE0FEF7B6FE002878D08B
:104FB0006E6871008919884272D3310381420DD223
:104FC0006EE03F480068024001D0A448F0E7A448E2
:104FD000EEE7FEF76BFEE9E7C80BE9E7030E020216
:104FE000700800218018594132000023FCF70DFDA4
:104FF0009C4941189C4A91424EE0FEF797FE0AE018
:10500000696848081B681A4001D0984A0AE0984A23
:1050100008E0FEF74BFE696840004A0802E0696854
:10502000480812038018FCF7ADFB80B200E00124B1
:1050300001001039B14233D206400007400F30431F
:105040002BE0002908D0012909D002290AD004291F
:1050500011D0082915D01BE0FEF75EFE0DE0FEF72B
:1050600065FE0AE0696848081B681A4001D07B4A5F
:1050700005E07B4A03E0FEF719FE69684A088018DC
:1050800002E069684808C019FCF77CFB80B200E0C8
:10509000012401001039B14202D22968C86000E041
:1050A00001240020286668662000F2BDF369FFEF46
:1050B000FFCFFFFF00480040FFF4FFFF0038014032
:1050C00000100240F0FF00002421415CC90706D512
:1050D00001684A68674B1340826A1A434A60242178
:1050E000415C890706D501684A68634B1340C26A70
:1050F0001A434A602421415C490706D501684A6881
:105100005E4B1340026B1A434A602421415C09073D
:1051100006D501684A685A4B1340426B1A434A60ED
:105120002421415CC90606D501688A68554B1340A5
:10513000826B1A438A602421415C890606D5016886
:105140008A68514B1340C26B1A438A602421415C28
:10515000490611D501684A684C4B1340026C1A434A
:105160004A60026C80235B039A4205D14A68484B2F
:105170001340426C1A434A602421415C090606D55B
:1051800001684A68434B1340806C1843486070477D
:1051900000440040F8B5040000257030C560FEF7FB
:1051A0003BFE07003C4E20680068000709D50096CA
:1051B0003B00002280218903200000F01AF800281B
:1051C0000DD12068006840070BD500963B000022F7
:1051D0008021C903200000F00CF8002801D0032032
:1051E000F2BD210070312020486088600D700020E1
:1051F000F2BDFEB5089E002405000F00684602704F
:1052000001932868C0693840B84201D1012000E00C
:1052100000206946097888421DD10020C04386429B
:10522000EFD0FEF7F9FD0199401A864201D3002E16
:10523000E7D128680168194A0A4002602868816835
:1052400001229143816028007030202141608160FB
:1052500004700320FEBD0020FEBD000000093D00DB
:105260000024F40000FDFFFF00FD0F0000127A0093
:105270000048E801FFFFFDFFFFFFFEFFFFFFFBFF10
:10528000FF7FFFFFFFEFFFFFFFDFFFFFFFFFEFFFEE
:10529000FFFF9FFFFFFFF7FFFFFFFF015FFEFFFF25
:1052A0009D2102000AD002D4491E9218FCD5C905DE
:1052B000100A1206524100D3012A484170470000EB
:1052C000012212060118CA420AD28A420DD8382297
:1052D000120609098918C20FD20711434007704707
:1052E00000D049080909014301E0C10FC9070020A6
:1052F0007047FEE70CB418B583B004000A0006A896
:10530000029001940020009002AB01A90848784463
:105310001E30FAF7D5FE0021019A1170002801D441
:105320000198001B04B0019910BC03B0084700BFEE
:1053300083C0FFFF0DB4C0B50A0004A8019000208F
:10534000009001AB03A9044878440C30FCF7D8FB6B
:10535000029906B0084700BFE3BFFFFF686A6C749C
:105360007A4C00007072696E74665F733A20256E25
:1053700020646973616C6C6F776564007072696E2C
:1053800074663A2062616420256E20617267756DD3
:10539000656E74007072696E74665F733A20626144
:1053A0006420257320617267756D656E740000005E
:1053B000000000007072696E74665F733A2062616B
:1053C0006420256C7320617267756D656E740000D2
:1053D000000000006E616E004E414E00696E660076
:1053E000494E46003000FEE70F480168820D0A432F
:1053F0000260C1680D4A0A40C26001680C4A0A4056
:10540000026081680122914381600168094A0A4073
:105410000260C168084A0A40C26000210161802020
:105420000005064908607047001002400C40FF88E4
:10543000F6FFF6FEFFFFFBFFFFFF02FF08ED00E0B7
:105440000000000000000000010203040607080934
:10545000030406080C101820300000000000412949
:10546000211C1917161514131212111111101010F6
:105470000F0F0F0F0E0E0E0E0E0E0E0D0D0D0D0D4D
:105480000D0000003031323334353637383961623F
:10549000636465666768696A6B6C6D6E6F70717264
:1054A000737475767778797A000000007363616EA3
:1054B000665F733A2062616420256C632C20256C42
:1054C000732C206F7220256C5B20617267756D658F
:1054D0006E7400007363616E665F733A206261648C
:1054E0002025632C2025732C206F7220255B2061E2
:1054F0007267756D656E7400000000000000244046
:105500000000000000005940000000000088C34077
:105510000000000084D797410080E03779C3414301
:10552000176E05B5B5B89346F5F93FE9034F384D09
:10553000321D30F94877825A3CBF737FDD4F1575B5
:1055400070B40123002413E00168001D194202D049
:105550004D466918491E0C60091D121F042AFAD213
:105560000D00960701D50C80AD1C1A4000D02C70A0
:105570000268001D002AE7D170BC7047686A6C742D
:105580007A4C000063436E5B000000007363616E41
:10559000665F733A2062616420256E2061726775D0
:1055A0006D656E74000000007363616E665F733A30
:1055B0002062616420666C6F6174696E672D706F24
:1055C000696E7420617267756D656E74000000000D
:1055D0007047FEE7704770477047704780B50448D2
:1055E000FEF7CBFC01BD80B50248FEF7C6FC01BD4D
:1055F000400100207C01002010B507497944183192
:10560000064C7C44163404E0081D0A688918884753
:105610000100A142F8D110BD2C000000480000009C
:10562000FF2902D90020C043704701700120704754
:105630000A780260087800E00078401E8041C0438C
:10564000C00F7047FDFEFFFFFC000000C0000020FF
:105650000000000037BBFFFF930000009C0000002B
:105660000000002000F00DF8002801D0FFF7C4FF73
:1056700000BF00BF002000BF00BFFEF751FF00F0D9
:1056800002F80120704780B500F002F801BDFEE786
:1056900007463846FCF700FAFBE7FEE705480146F7
:1056A00003B4684680F3098800BF00BF00BF00BF95
:1056B000FFF7D8FFA5EDF5FE0148804701480047F8
:1056C000E95300089D560008000000000102030491
:1056D000FEE7FEE7FEE7FEE7FEE7FEE7FEE7FEE7A2
:1056E000FEE7FEE7FEE7FEE7FEE7004301000132CA
:1056F0000408A320000112FF01F20E0001F00207CE
:10570000EA5600080452FF01E3D2131420040000FB
:10571000721500087C52407520020F1200080852D2
:105720000908122508120D045239102101123940BE
:095730001231044321563C210111
:040000050800569DFC
:00000001FF
