:020000040800F2
:1000000020050020D51C0008FD1B0008FF1B000870
:1000100000000000000000000000000000000000E0
:10002000000000000000000000000000011C0008AB
:100030000000000000000000031C0008051C000870
:10004000530E0008570E0008B310000837160008BA
:10005000071C00084B1B0008971C0008A31C000885
:10006000ED1C0008EF1C0008F11C0008F31C000840
:10007000F51C0008F71C000800000000F91C00082F
:1000800000000000091C0008000000000000000043
:10009000131C000800000000FB1C0008FD1C0008E9
:1000A000FF1C0008011D0008031D0008051D0008B5
:1000B000071D0008091D00080B1D00080D1D000884
:1000C000FEB5060057D0B64CE0680C210140009107
:1000D000E06880214902084001903078C0070ED5C1
:1000E0004F000098082804D00C2867D10198884256
:1000F00064D12068074002D0706800283BD0307877
:1001000080072AD5F068BA4F0921C943009A042A0A
:1001100005D00C2A01D1019A002A00D089E022687A
:10012000520701D5002826D06268174032691202B2
:100130003A436260226811400843206000F0B6FA3A
:10014000AC49E2681206120F895CC840BD490860DC
:10015000002000F029FB01002FD13078C00600D428
:10016000B3E0B94F0098002800D08FE020688005E8
:1001700003D5F069002800D1D7E160680740706AB4
:100180003843606060680002000A316A0906014372
:1001900061600120716A490B491C8840C003954980
:1001A000E2681206120F895CC840A6490860002068
:1001B00000F0FAFA010000D187E0FEBD70688842C5
:1001C00001D1206809E0A021C9028842206806D137
:1001D0007900014321602068790801430AE0B249AF
:1001E0000140216020687908084002900298206848
:1001F000AE4901402160706800280DD000F00CFB72
:1002000005002068384000D079E700F005FB401B6E
:100210006528F6D30320FEBD00F0FEFA0500206835
:10022000384000D16BE700F0F7FA401B6528F6D3A1
:10023000F0E704220192002817D0226811400843F9
:10024000206000F0E9FA050020680199014005D11D
:1002500000F0E2FA401B0228F6D9DBE760680740AD
:10026000306900023843606077E7206801218843E5
:10027000206000F0D1FA0500206801990140F3D018
:1002800000F0CAFA401B0228F6D9C3E7F06900283B
:10029000206831D0A10D0143216000F0BDFA0500B6
:1002A0002068800505D400F0B7FA401B0228F7D972
:1002B000B0E760680740706A3843606060680002B9
:1002C000000A316A0906014361603078000731D5C0
:1002D000022770690028206D1DD00121014321658E
:1002E00000F09AFA0500206D384023D100F094FA0E
:1002F000401B0228F7D98DE78E490140216000F0AC
:100300008BFA050020688005DFD500F085FA401BD8
:100310000228F7D97EE701218843206500F07CFAA6
:100320000500206D384005D000F076FA401B022809
:10033000F7D96FE73078400765D50020019080201D
:100340004005A16B014004D1A16B0843A0630120CB
:100350000190794F3868C0050FD43868A10D01436A
:10036000396000F059FA05003868C00505D400F07E
:1003700053FA401B6528F7D34CE7B268A10D8A42B7
:100380000AD06E48002A0DD0A023DB009A4209D182
:10039000206D8A0002432265206D0143216508E03B
:1003A00000100240216D634A0A402265216D084019
:1003B0002065670DB06800280CD000F02DFA05000C
:1003C000206D384018D100F027FA401B5C49884264
:1003D000F6D31FE700F020FA0500206D38400BD05F
:1003E00000F01AFA401B56498842F6D312E700BFC4
:1003F000FFE0FFFFA41B00080198002803D0A06BBA
:10040000A6490140A1633078800633D5A44802276D
:10041000B16900291AD00121A2680A43A260626B67
:10042000114361630168420C0A43026000F0F4F971
:100430000500A06838401DD100F0EEF9401B0228ED
:10044000F7D9E7E60C000020FF1FFFFFA16801229B
:100450009143A1600168934A0A40026000F0DCF910
:100460000500A068384005D000F0D6F9401B0228EE
:10047000F7D9CFE6B06A002859D000990C293FD0AF
:100480008025AD048849022820682BD101402160D5
:1004900000F0C2F907002068284009D000F0BCF93C
:1004A000C01B0228F7D9B5E6FFFFFEFFFFFFFBFFE9
:1004B000E0689D490140F06A0843316B0143706B6D
:1004C0000843E060206869080143216000F0A4F956
:1004D0000600206828402AD100F09EF9801B0228DF
:1004E000F7D997E60140216000F096F906002068F0
:1004F00028401CD000F090F9801B0228F7D989E62B
:10050000012812D0E068802149020140F26A91423C
:100510000BD1F02189030140326B914205D1C021FA
:1005200009040140706B814201D00120FEBD002012
:10053000FEBD0000FFFEFFFF00700040FFFBFFFF5D
:1005400089130000F8B5040032D000917C4800689F
:10055000C107C90F009881420CD279480168012275
:100560009143009A0A4302600068C107C90F0098CE
:1005700081426FD1734D2078800705D5E868F0215E
:100580008843A1680143E96001272068384051D0C1
:100590006068022802D12968890308E0032802D193
:1005A0002968890103E00128296802D1490702D49A
:1005B00050E089054ED5E968032291430843E8607D
:1005C00000F02AF90600606802280CD1E8680C21C6
:1005D000014008292ED000F01FF9801B684988428D
:1005E000F4D30320F2BD03280BD1E8680C210140AD
:1005F0000C291FD000F010F9801B61498842F4D308
:10060000EFE701280BD1E8680C210140042911D043
:1006100000F002F9801B5A498842F4D3E1E7E86808
:100620000C21014006D000F0F7F8801B54498842A5
:10063000F5D3D6E74248009902683A4091420BD27E
:100640000168B943009A0A430260006807400098B5
:10065000874201D00120F2BD2078400705D5E86827
:1006600048490140E0680843E8602078000706D563
:10067000E868454901402069C0000843E86000F08F
:1006800015F84249EA681206120F895CC8404049D1
:100690000860002000F088F8F2BD0000FFFFFFEFC7
:1006A00020000140FFDFFFFFFFFFFFFEF0B5254DFB
:1006B000E968394A9308102654080C200840042899
:1006C00004D0082809D00C2809D01DE0286806406D
:1006D00001D01800F0BD1000F0BD2000F0BD2F4883
:1006E0008F023F0FC05D0902890F491CEF68FF03AD
:1006F00001D5604305E02C68264001D0584300E056
:10070000504300F08FF8F0BD686801210004400FED
:10071000401C8140C803F0BD1D48006820491D4AA7
:100720001268520508E00000FFFF02FF1848006849
:100730001B49184A12689204520F895CC8407047DE
:10074000002002400010024010B50F220260114A42
:1007500013689B079B0F43601368F0241C40846060
:10076000E023DB0014681C40C4601268D208134008
:1007700003610C480068C207D20F0A6010BD000078
:1007800089130000FFF8FFFFFFC7FFFFA41B00084D
:100790000C0000200C1002400024F400B41B0008E0
:1007A000E41C00080020024010B586B001000022C1
:1007B000112000F08EF8112000F08FF81148016828
:1007C00010220A430260694601A8FFF7BDFFFFF748
:1007D000A3FF0D4C0D4921600D49E1600D4900F06A
:1007E00021F8401E606000202061A060200000F021
:1007F00081F8002803D1200000F092F800E00120E9
:1008000006B010BD38100240A400002000100040C7
:10081000E703000040420F0001484068704700BFF6
:1008200000000020094214D088420FD30122030C9B
:1008300001D100041204002300185B418B4200D355
:100840005B1A5241F8D319001000704701000020D4
:10085000704708B500F0FEFA08BD30B501684118D0
:10086000446862088A188368E40704D54C461B195B
:1008700001E0641C09D1914203D00C7864B2491C98
:1008800001E00C3030BD0D78491C1D705B1C002C44
:10089000EFD4641EF7D5EEE710B5C200182313405D
:1008A000FF249C40E2438907090E9940030007D5C5
:1008B0000D4B0007000F083880088000181803E06F
:1008C0000A489B089B00C01803681A401143016046
:1008D00010BD80B5FFF7E0FF01BD0121C006C00ECD
:1008E00081400348016070471CED00E000E400E037
:1008F00000E100E010B5040001D1012010BD392055
:10090000205C002804D138216054200000F0F7FA60
:10091000022039216054211D206800F0BDF932E029
:1009200000680121C2680A43C26082685207520F00
:10093000062A02D00268114301600020704710B5FA
:10094000040001D1012010BD3920205C002804D111
:1009500038216054200000F01BFB02203921605434
:10096000211D206800F098F90DE010B504002EE07C
:100970002068006A0749014005D12068006801210C
:10098000884321680860012039216054002010BD8F
:1009900000000000111100000400080006D0042926
:1009A00008D008290AD00C290CD010E02068C268B1
:1009B00002230AE02068C268042306E02068C268B7
:1009C000082302E02068C26810231343C360012299
:1009D000206800F031FA206881684907490F06292C
:1009E00003D0016801220A430260002010BDF8B55F
:1009F00004002068002502260169314015D0C16835
:100A0000314012D00221C943016101212176806960
:100A1000800703D0200000F0BCFA05E0200000F0C1
:100A2000B9FA200000F0B7FA25762068042701699A
:100A3000394016D0C168394013D00421C94301613F
:100A400026768069C0218900014003D0200000F093
:100A5000A0FA05E0200000F09DFA200000F09BFACB
:100A60002576206808260169314014D0C1683140DC
:100A700011D00821C94301612776C069800703D0DE
:100A8000200000F086FA05E0200000F083FA200044
:100A900000F081FA25762068102102690A4016D0FC
:100AA000C268114013D01021C94301612676C06984
:100AB000C0218900014003D0200000F06AFA05E05F
:100AC000200000F067FA200000F065FA2576206823
:100AD000012102690A4008D0C268114005D00121F5
:100AE000C9430161200000F09FFA2068402102699B
:100AF0000A4008D0C268114005D04021C9430161B5
:100B0000200000F0AAFAF1BDF8B504003820205CFE
:100B1000012801D10220F2BD01203823E054022037
:100B20003923E0542B4F86020D00002A06D0042AF8
:100B300015D0082A25D00C2A34D044E0206800F0D3
:100B4000D2F82068816908220A438261206881699D
:100B500004229143816120688169EA680EE020687F
:100B600000F0D7F8206881690E43866120688169AA
:100B70000F40876120688169EA6812020A43826136
:100B800021E0206800F0DDF82068C16908220A43EE
:100B9000C2612068C16904229143C1612068C169B2
:100BA000EA680EE0206800F0E3F82068C1690E43AF
:100BB000C6612068C1690F40C7612068C169EA68E1
:100BC00012020A43C26101203921605400203821F9
:100BD0006054F2BDFFFBFFFF70B504003820205CBD
:100BE000012801D1022070BD26003836012535705C
:100BF00002203922A05420688268264B134083606B
:100C0000086802003CD010283AD0202838D030287C
:100C100036D040282DD050281DD0602822D07028F2
:100C200003D06B0398420AD02EE0CB684A688968EB
:100C3000206800F0E1F820688168772208E0CB683E
:100C40004A688968206800F0D7F820688168AA039C
:100C50000A43826018E0CA684968206800F0A1F879
:100C600050210EE0CA684968206800F0ABF86021A6
:100C700007E0CA684968206800F093F8402100E066
:100C80000100206800F0B0F83920255400203070B1
:100C900070BD00008800FFFF70B502685C4B5D4CC2
:100CA0008025ED05A84203D0A04201D0984208D18A
:100CB0007026B24316004A683243A84203D0A042CD
:100CC00001D0984203D1544B1340CA681A43802381
:100CD0009A430B69134303608A68C26209688162A0
:100CE0000121416170BD30B5026A01239A4302625D
:100CF000036A426885697324A5430C682C43022566
:100D0000AB438D681D43426084614968416305625D
:100D100030BD30B5026A10239A430262026A43680A
:100D200084693E4D25400C6824022C432025AA43AB
:100D30008D682D01154343608461496881630562B4
:100D400030BD30B5026A364B13400362046A426814
:100D5000C56973239D430B682B43324D25408C6836
:100D600024022C434260C3614968C163046230BD00
:100D700030B5026A2C4B13400362036A4268C469AF
:100D8000264D25400C6824022C43284D1D408B68BD
:100D90001B032B434260C46149680164036230BD98
:100DA000000030B5036A046A0125AC43046284691B
:100DB000F025AC431201224382610A229343194376
:100DC000016230BD30B5036A1024A3430362846915
:100DD000036A174D254012032A438261A0229343E0
:100DE00009011943016230BD826870239A4311439F
:100DF00007220A438260704730B584680D4D254054
:100E000029430A4319021143816030BD00000000EC
:100E10000014014000080140FFFCFFFFFF8CFFFFB2
:100E2000FFFEFFFFFFFDFFFFFFEFFFFFFFDFFFFF05
:100E3000FF0FFFFFFF00FFFF10B5C906C90E036AD1
:100E400001248C40A3430362036A8A401A4302626E
:100E500010BDFEE77047FEE738B58AB010220021CA
:100E600006A800F0FBF808220021684600F0F6F81A
:100E70001022002102A800F0F1F8414C4148206006
:100E800000256560A560FA20C001E0602561802032
:100E900060612000FFF72EFD002801D000F0DCF893
:100EA00080204001069006A92000FFF795FE00284B
:100EB00001D000F0D1F82000FFF741FD002801D05B
:100EC00000F0CAF8009501956946200000F0D0F8BE
:100ED000002801D000F0C0F860200290039504952E
:100EE0000595002202A92000FFF70EFE002801D080
:100EF00000F0B2F8200000F016F80BB030BD00682A
:100F00002049884200D0704780B51F4801680422FC
:100F10000A430260002200211420FFF7DAFC1420AB
:100F2000FFF7DBFC01BD10B586B0040014220021E0
:100F300001A800F093F82068124988421DD10120D1
:100F400012490A6802430A60096808400090009844
:100F5000042001900220029000200390049005904C
:100F600001A9A020C00500F0A5F8054C0021200033
:100F7000FFF7FBFC2000FFF7D3FC06B010BD00001C
:100F8000E000002000080140341002402C10024014
:100F9000704770477047704780B500F063F900F004
:100FA00009F800F073F900F0A7F9FFF755FF00F01A
:100FB00015FAFCE738B59CB0382200210EA800F0E5
:100FC0004DF814220021684600F048F82422002140
:100FD00005A800F043F81C4801681C4A0A40C10CEF
:100FE0001143016001240E9420040F9002211891F6
:100FF0001990C02000031A9048051B900EA8FFF717
:101000005FF80F20009003200190002502950395C2
:10101000049501216846FFF795FA0594089505A8FF
:1010200000F0F8F91DB030BD10B504002068084983
:10103000884201D100F0D0FA20680649884201D1E7
:1010400000F0A4F910BD000000700040FFE7FFFFB2
:1010500000100040000801407047704710B50400C0
:10106000080011000200200000F0BEFA200010BDB0
:10107000F0B53822825C012A01D10220F0BD0200C5
:1010800038320123137002243925445504686568F9
:10109000A6688027BE434F6837437026B54309686A
:1010A0002943616001688F6039214354002010702A
:1010B000F0BDFEE7FFB50022012301932BE00626D9
:1010C00003E0614EB042FAD10526AE402643029CB1
:1010D00026605E4C2668DC4326404D68ED0300D553
:1010E0001E435A4D2E606E6826404F68BF0300D5E0
:1010F0001E436E60AE6826404F68FF0200D51E4357
:10110000AE60EE6834404E68B60202D526001C0080
:101110003443EC60521C0B681C00D44000D183E0C7
:10112000019D95402B40F5D054000327A740FE4376
:1011300002964E68012E05D0022E03D0112E01D04A
:10114000122E0FD18768029E3E40CF68A7403743DA
:1011500087604668AE434D682D09019F2F40974038
:1011600037434760C568029E2E408D68A5403543D1
:10117000C56095006E4675704D68022D01D0122D28
:101180001AD1D508AD0045192E6A03966E467778B8
:101190001C263E406F463E70039EB4460F276E46A7
:1011A0003678B7406646BE43B4460F696E46367819
:1011B000B740664637432F6207680326029D3D40CD
:1011C0004F683740BC4627006446BC402C4304604F
:1011D0004C68E4009ED51E4C2468019D25431C4CA0
:1011E00025601C4C9508AD0064190294029C24688B
:1011F0006D466F780C253D400F27AF40BC43A027BC
:10120000FF05B84201D100265FE7134FB84201D174
:10121000019E5AE7114FB84201D1022655E7104FFF
:10122000B84200D04DE750E7FFBD002A01D08161F0
:1012300070478162704742690B0013401B04914361
:101240001943816170470000001C005000040140F8
:101250003410024008000140000400500008005013
:10126000000C005010B500240748016840220A43D2
:1012700002600020FFF798FA002801D0012401E065
:1012800000F0DAF9200010BD0020024070B586B0F1
:101290001422002101A8FFF7E1FE0421144802688E
:1012A0000A4302600268114000910099802102689F
:1012B0000A4302600268114000910099012401680C
:1012C0002143016000682040009000986503094EAA
:1012D000002229003000FFF7A8FF019502940020AA
:1012E0000390049001A93000FFF7E4FE06B070BD42
:1012F0002C1002400008005080B5214821490160AF
:10130000E1214902416000218160C16001610C223C
:1013100042618161C1610162416200F0A3F900286C
:1013200001D0FFF799FE01BD10B586B0040014226C
:10133000002101A8FFF792FE2068124988421DD1C2
:10134000114881688022D2010A438260012102682B
:101350000A4302600068014000910098C020C0006C
:1013600001900220029000200390032004900420AA
:10137000059001A9A020C005FFF79CFE06B010BD96
:1013800024000020003801402C10024010B51D48F8
:1013900003695A1CFA24A400A34202DB00220123A1
:1013A000436002610023DB43174A0468002C05D424
:1013B0001649C16001681160036010BDC468002C4B
:1013C0000AD08368DB1C0E4CE4689C4200D20023E8
:1013D00083601846106010BDC36010BD09484168A5
:1013E000002900D1704780B500214160802189012A
:1013F0000748FFF720FF0448006801BD0000000017
:10140000E000002010000020340801408813000094
:1014100000080050FEB50400644D206882210901D7
:10142000014000D189E00020019080204005A96B97
:10143000014004D1A96B0843A86301200190AF0DBE
:101440005B480068384013D1594800900068384321
:1014500000990860FFF7E0F906000098006838403E
:1014600006D1FFF7D9F9801B6528F6D30320FEBD0E
:101470002868C021890301406068C02292030240AD
:10148000914205D1A268C0239B03134099420BD01F
:10149000C02189020140C0229202914204D12968F0
:1014A000890301D50120FEBD2A6DC02189021140AA
:1014B00029D0C02292021040814202D020788006BA
:1014C00006D4A068024091421DD0206800051AD5BC
:1014D000296D38480840296DFA020A432A65296DAA
:1014E000354A0A402A65286507400CD0FFF794F971
:1014F0000600286D800506D4FFF78EF9801B2F4962
:101500008842F6D3B2E76168C020800202000A4038
:10151000824206D12A682A4B134002010A401A432C
:101520002A60296D626810400843286501980028E8
:1015300003D0A86B23490140A9632078C00705D5D3
:10154000E86C03218843E1680143E964207880075F
:1015500005D5E86C0C21884321690143E9642078B2
:10156000400705D5E86C1849014060690843E86404
:101570002078000705D5E86C14490140A0690843AC
:10158000E8642078400605D5E86C11490140206ADE
:101590000843E8642078000605D5E86C0D49014051
:1015A000E0690843E8640020FEBD0000001002402E
:1015B00000700040FFFFFCFFFFFFF7FF89130000F2
:1015C000FFFFCFFFFFFFFFEFFFF3FFFFFFCFFFFFA7
:1015D000FFFFFFFBFFFFF3FF024841680278891815
:1015E00041607047000000201206130A1A43130CD2
:1015F0001A4300BF094205D0830705D00270401C82
:10160000491EF9D1704700001300103906D330B4D9
:101610001400150010393CC0FCD230BC490700D37F
:101620000CC000D504C0890002D30280801C0029B0
:1016300000D502707047FEE780B5094801680122B5
:101640000A4302604168802252050A434260002238
:1016500000210420FFF73DF90420FFF73EF901BD0A
:101660003410024038B5040014D025007035686885
:10167000002803D128702000FFF756FE2420686060
:1016800020680168012291430160200000F020F8E9
:10169000012801D1012032BD606A002802D020005B
:1016A00000F028F920684168084A0A404260206832
:1016B00081682A2291438160FFE720680168012246
:1016C0000A430260200000F07BF932BDFFB7FFFF44
:1016D000F8B5050010221023002000242E68316880
:1016E0007D4F0F40A96839432F690F43696939431A
:1016F000EF690F433760776878493940EF680F43E7
:101700007760A969009176498E4203D0009F296ACB
:1017100039430091B76873493940009F0F43B76060
:1017200071498E4221D17149C96C8907890F04D052
:10173000022928D03FD3032939E0012300936C4EBE
:101740006A4BE969D702B942009900D08FE00029BD
:1017500008D0012967D0022968D004296FD0082950
:1017600073D07AE0FEF7D8FF6BE094498E420CD13B
:101770005E49C96C0C270F401BD0042F1BD0082FCB
:1017800001D00C2F13E0022318E055498E4215D1E9
:101790005649CF6CC021090139400AD09701B9429E
:1017A00009D0D701B942EED0C0273F01B94204D0D9
:1017B00004E0002302E0042300E0082348498E42AD
:1017C000BCD1002B06D0022B11D0042B17D0082B34
:1017D00018D07BE0FEF7A0FF002878D06E6871007B
:1017E0008919884272D3310381420DD26EE03F489D
:1017F0000068024001D0A448F0E7A448EEE7FEF7F5
:1018000055FFE9E7C80BE9E7030E02027008002163
:10181000801859413200002300F058F99C494118C2
:101820009C4A91424EE0FEF781FF0AE06968480851
:101830001B681A4001D0984A0AE0984A08E0FEF76F
:1018400035FF696840004A0802E0696848081203E9
:101850008018FEF7E7FF80B200E001240100103994
:10186000B14233D206400007400F30432BE000293D
:1018700008D0012909D002290AD0042911D0082949
:1018800015D01BE0FEF748FF0DE0FEF74FFF0AE022
:10189000696848081B681A4001D07B4A05E07B4A0A
:1018A00003E0FEF703FF69684A08801802E06968F0
:1018B0004808C019FEF7B6FF80B200E0012401001D
:1018C0001039B14202D22968C86000E0012400202A
:1018D000286668662000F2BDF369FFEFFFCFFFFFC7
:1018E00000480040FFF4FFFF0038014000100240B4
:1018F000F0FF00002421415CC90706D501684A6851
:10190000674B1340826A1A434A602421415C89076D
:1019100006D501684A68634B1340C26A1A434A609D
:101920002421415C490706D501684A685E4B134093
:10193000026B1A434A602421415C090706D50168FD
:101940004A685A4B1340426B1A434A602421415C57
:10195000C90606D501688A68554B1340826B1A4345
:101960008A602421415C890606D501688A68514B4A
:101970001340C26B1A438A602421415C490611D589
:1019800001684A684C4B1340026C1A434A60026C6F
:1019900080235B039A4205D14A68484B1340426C4E
:1019A0001A434A602421415C090606D501684A6849
:1019B000434B1340806C184348607047004400401C
:1019C000F8B5040000257030C560FEF725FF07005C
:1019D0003C4E20680068000709D500963B000022B5
:1019E00080218903200000F01AF800280DD120681A
:1019F000006840070BD500963B0000228021C903F8
:101A0000200000F00CF8002801D00320F2BD2100D6
:101A100070312020486088600D700020F2BDFEB556
:101A2000089E002405000F00684602700193286894
:101A3000C0693840B84201D1012000E00020694669
:101A4000097888421DD10020C0438642EFD0FEF7BE
:101A5000E3FE0199401A864201D3002EE7D128689F
:101A60000168194A0A40026028688168012291438E
:101A70008160280070302021416081600470032063
:101A8000FEBD0020FEBD000000093D000024F40062
:101A900000FDFFFF00FD0F0000127A000048E80182
:101AA000FFFFFDFFFFFFFEFFFFFFFBFFFF7FFFFFCD
:101AB000FFEFFFFFFFDFFFFFFFFFEFFFFFFF9FFFD6
:101AC000FFFFF7FFFFFFFF015FFEFFFF12422DD078
:101AD000994231D970B500251B4209D00C00002174
:101AE00012E01100FEF79EFE0A000021002370BDE7
:101AF0000942F6D00024012649186441944200D3DB
:101B0000A41A7641F8D33100012601E0764109D2CA
:101B1000001864416D41A41A9D41F7D2A4185D419B
:101B2000B619F5D3300022002B0070BD1B42CFD177
:101B300008B500F009F808BD01D19042CAD20200F0
:101B40000B000021002070477047FEE70F48016836
:101B5000820D0A430260C1680D4A0A40C2600168F2
:101B60000C4A0A4002608168012291438160016849
:101B7000094A0A400260C168084A0A40C26000215E
:101B8000016180200005064908607047001002408E
:101B90000C40FF88F6FFF6FEFFFFFBFFFFFF02FF92
:101BA00008ED00E000000000000000000102030456
:101BB00006070809030406080C101820300000006E
:101BC00070B40123002413E00168001D194202D003
:101BD0004D466918491E0C60091D121F042AFAD2CD
:101BE0000D00960701D50C80AD1C1A4000D02C705A
:101BF0000268001D002AE7D170BC70477047FEE7FD
:101C0000704770477047704780B50448FEF7EFFE95
:101C100001BD80B50248FEF7EAFE01BDA400002028
:101C2000E000002010B5074979441831064C7C4487
:101C3000163404E0081D0A68891888470100A1428B
:101C4000F8D110BD080000002400000075FFFFFF60
:101C5000F80000002400002000000000FFEBFFFF60
:101C6000AE0000001E0000000000002000F00DF893
:101C7000002801D0FFF7D6FF00BF00BF002000BF43
:101C800000BFFFF789F900F002F80120704780B526
:101C900000F002F801BDFEE70746384600F002F802
:101CA000FBE7FEE780B500BF00BF024A1100182025
:101CB000ABBEFBE7260002000548014603B46846B8
:101CC00080F3098800BF00BF00BF00BFFFF7CEFF51
:101CD000A5EDF5FE01488047014800474D1B00086F
:101CE000B91C00080000000001020304FEE7FEE743
:101CF000FEE7FEE7FEE7FEE7FEE7FEE7FEE7FEE7BC
:101D0000FEE7FEE7FEE7FEE7FEE7FEE7FEE700018F
:0D1D1000F9000004FB00012000FCFFF000C2
:0400000508001CB91A
:00000001FF
