:020000040800F2
:1000000090150020753A0008613A0008633A00082C
:1000100000000000000000000000000000000000E0
:100020000000000000000000000000006937000828
:1000300000000000000000002B370008ED3600082B
:1000400017130008B7140008CB190008CF190008CF
:100050003F3600082B380008033A00080F3A000822
:100060005F3A0008993A00089B3A00089D3A000858
:100070009F3A0008A13A000800000000653A000815
:1000800000000000A33A000800000000000000008B
:10009000A53A000800000000A73A0008A93A0008A5
:1000A000AB3A0008AD3A0008AF3A0008B13A000890
:1000B000B33A0008B53A0008B73A0008B93A000860
:1000C000FDB5B4B03C9801AA0023002418C20691E3
:1000D00004A93B2288540F9317A8401C31900F208D
:1000E0006946C87013E0359C3500349F2178069826
:1000F000B8470690002800D140E10F98401C0F90AF
:10010000641C6D1EF2D1349735988019359035985E
:10011000007825280ED1002009900A900B900C90B1
:100120000D900E90002102240420169008201490B7
:10013000359D0FE001AA0021C943359801F098F8D8
:10014000060001D10F981BE1CDD50126DCE70800A0
:10015000012101436D1C28782028F8D023280BD0DA
:100160002B2804D02D2804D0302808D00AE02143C1
:10017000F0E708001699ECE708000821E9E7080015
:100180001021E6E72A280FD1369802681068121D60
:10019000369B1A601190002804D542421192080043
:1001A000169901436D1C12E000201190B94A09E034
:1001B000119B934205DA9E00F3185B001818303843
:1001C00011906D1C28780300303B0A2BF0D328785F
:1001D0002E2803D00020C043109027E06D1C287803
:1001E0002A2808D1369800680268001D369B1860DE
:1001F00010926D1C1AE02D2802D12D226D1C00E0FA
:10020000002200201090A34B0BE0002A08D1109E82
:100210009E4205DAB700BE197600301830381090CB
:100220006D1C28780600303E0A2EEED304A8018704
:100230002E78310056487844FF30573001F02AF8C4
:10024000002801D06D1C00E0002604A83A21465485
:10025000405C682804D1287868280BD1622005E02A
:100260006C2807D128786C2804D1712004A93A227F
:1002700088546D1C22A80890287869460870681C6C
:100280003590684602781000253834D01C3800D1EB
:100290009CE1001F022800D898E10E3831D0401FA1
:1002A00001D100F0E7FC093800D18FE1801E01D1B7
:1002B00000F07EFD401E01D100F02AFD401E022804
:1002C00000D883E1001F01D100F022FD401F00D1C2
:1002D000D2E0401E01D100F0CDFC401E78D0C01EFF
:1002E00027D0801E01D100F0C5FCC01E01D100F056
:1002F000C1FC00F07CFD252022A908700120099096
:1003000034E06C2004A93A228854369800680268C8
:10031000001D36990860002A53D104A83B21405C97
:1003200000284AD00024E44359487844FF30633021
:1003300018E004A83A21405C6C28E6D036980068A2
:100340000468001D369908600794002C22D104A887
:100350003B21405C002815D00024E4434E487844FB
:10036000FF30373000F0A0FF201A07D122AA04A9DD
:10037000349800F04BFD002800D4C8E60020C043AC
:1003800037B0F0BD45487844FF3013300790EDE7B3
:1003900010340000109D002D03D5200000F0A8FFB0
:1003A00009E02A000021200000F0AAFF002801D067
:1003B000001B00E028000A90D8E7394A7A44FF324F
:1003C0001F3A04A9349800F0ABFD0028CED5D5E73C
:1003D000369800680268001D369908600020C04306
:1003E0000021104004AA03C222A80790089B3C24C5
:1003F00004A803C8002904D1002802D1109A002AB9
:1004000016D0641E6D46ED7805403035EEB23A2EBA
:1004100008DA1D5500090A071043090904D100280C
:1004200002D105E02735F4E7079A1D19AA42E8D35F
:100430003C20001B0A90191907911099884207DA8D
:10044000081A0C9004A8018FA74A0A4002878DE77A
:1004500000298BD504A93822895C14220A40102A6D
:1004600084D11199099A891A0C9A891A081A0028B4
:1004700000DC7BE70C9079E704A83B21415C002974
:1004800010D00024E4434F487844FF30393069E706
:1004900068330000CBCCCC0C403300005833000054
:1004A000743300003A21405C62286BD068281CD06D
:1004B0006A2847D06C2806D0712855D0742833D0CC
:1004C0007A2823D06FE0369800680168001D369ABC
:1004D0001060002906D10024E4433B487844FF30F3
:1004E00017383FE70F98086040E7369800680168C2
:1004F000001D369A1060002905D10024E4433248DB
:100500007844C4302EE70F9808802FE736980068AB
:100510000168001D369A10600029E3D10024E443ED
:1005200029487844A2301DE7369800680168001D0C
:10053000369A10600029D5D10024E443224878443B
:1005400086300FE7369800680268001D369908600B
:10055000002A05D10024E4431B4878446A3001E7AF
:100560000F98C11703C201E7369800680268001DA2
:1005700036990860002AF3D10024E44312487844F5
:100580004630EFE6369800680168001D369A106024
:10059000002905D10024E4430B4878442A30E1E6E1
:1005A0000F980870E2E6369800680168001D369AD8
:1005B0001060002996D10024E443034878440830B1
:1005C000D0E600BFE4310000F8310000369803683F
:1005D000DB1D072083433698036003CB369D2B60D9
:1005E00004AB03C3C80F02D009982D210AE004A868
:1005F000008F204202D009982B2103E0C00705D5C7
:100600000998202122AB1954401C099022A809996D
:100610004318079317AD04A8C0C868460078202186
:10062000014368468170807861280BD010980028BB
:1006300001D5062005E005D168468078672801D1FC
:100640000120109004A803C808004C006415641C25
:1006500012D1090310D003200A90613A1A2A03D25A
:1006600022497944863102E02149794482310322CA
:10067000180000F06BFE79E6002C0AD1000308D1C7
:1006800003200A90613A1A2A19D31A49794464312D
:10069000EDE703AA04A803C800F065FE04AA03C29C
:1006A00068468078612813D1079830210170811C39
:1006B000079169460978612905D1782104E00E493E
:1006C00079443431D3E7582141700998801C09904E
:1006D00004A803C895A20CCA02400B400ED1002A00
:1006E0000CD10024002666E1EFFF00002C31000051
:1006F0002C3100003031000028310000684680783D
:10070000612800D09EE01098002801D5212000E04B
:10071000401C15901598401C16903000390000229E
:10072000002300F035FE04A830C802D28020000665
:1007300045400398001F039017A90A7017A8461C8C
:100740001698002836DD169F2000290000228023FD
:100750005B0300F036FE2DD81C2200F04BFE040097
:100760000D0000F07FFE1690FF1F002F09DD00F046
:10077000B3FE02000B002000290000F014FF04006B
:100780000D00F01D07210F226B46DA70169A002A21
:100790000BDD491E09D4401E6E46F67816400670E1
:1007A0001211F4E7401E00220270491EFAD5C61D40
:1007B000002FC9DC17A83199711A17AA551C159A70
:1007C0000C00914200DD1400002C34D48C4206DA77
:1007D000411C095D082902DB6946C97800E0002157
:1007E000220017AB9B1801E0641E5B1E521E1E7890
:1007F0008E42F9D00F2904D1411C895C491C401C50
:100800008154002A04D517AD641C0398001D039081
:10081000611E10D46A186846007813783033DEB24F
:100820003A2E01DBC318C6331370491E521E00292D
:10083000F3D5694608701098002800D4BAE0601E0D
:100840001090B7E07F007F080398694948436949E1
:1008500000F020FF039007200399401A002805DDCF
:1008600002003000390000F04DFC0AE04242002056
:10087000614900F047FC02000B003000390000F035
:1008800038FF6A469278662A02D1039A0A3200E05B
:100890000622109B9A18142A00DD142217AB30246C
:1008A0001C705C1C02E032A803C8159A002A41DDC6
:1008B00032AB03C3159232A803C800F0E5FD2190C6
:1008C00006460834169D30000A2100F0F7FE0F009E
:1008D00030000A2100F0F2FE06003037601E07707B
:1008E00030000A2100F0EAFE0F0030000A2100F07B
:1008F000E5FE0600A41E303727706D1EE3D10834D4
:100900001598083815900028CDDD219800F0D4FD09
:1009100002000B0032A803C800F045FE0022374B4E
:1009200000F048FF32AA03C2C5E700BFFFFFFFFF88
:10093000FFFFFF7F3198201A17A94D1C04E0401ECD
:100940000399491E03916D1C29783029F7D0694617
:100950008978662902D10399491C06E0694689789D
:10096000652901D1012100E00021109A5418A0420C
:1009700000DA441E002C1DD4844204DA285D342899
:1009800001DD392100E030212200681E831801E0DA
:10099000641E5B1E521E1E788E42F9D0392902D188
:1009A000A95C491CA954002A04D50500641C0398BD
:1009B000401C0390039E1595684600786946487070
:1009C00000F060FC406A007869460870109D20B213
:1009D000002804DC0124054878441030159068464E
:1009E000807866280CD1761C24E000BF3C2E0000E5
:1009F00097750000A08601000000F03F84D7974162
:100A000068468078672847D130B20321C9438842BD
:100A100048DBA84246DA761C04A8008F1499C0B2BD
:100A2000084203D120B2A84200DC050030B22D1AE2
:100A300000D500250A990798401837B2002F00DD2D
:100A4000B8E0491C0A9130210170002D05DC04A892
:100A5000008F1499C0B2084206D00A98411C0A912E
:100A600069460978079A11547842854200DA6E4245
:100A700036B270420D90AD1920B2854200DA2C00DA
:100A800024B20B942200159907980A9BC01800F015
:100A90005DFC281B0E90D3E068464078612818D191
:100AA00070201BE020B2A84206DA04A9098F149A2C
:100AB000C9B2114200D105006D1E00D5002568465F
:100AC0004078672802D16520694607E045206946DD
:100AD00004E068464078412801D1502048700A98C7
:100AE000411C0A9115990978079A11541598411CCF
:100AF000002D05DC04A8008F149AC0B2104219D052
:100B00000A98421C0A926A461278079B1A54002DD2
:100B100010DD641E20B2854200DA2C0022B2079854
:100B20000A9BC01800F012FC24B20A9800190A901F
:100B3000281B0D9007980A9940186946497801705A
:100B400031B2002903D42B214170871C03E02D22F0
:100B50004270871C4E42002414AD300008E00A2188
:100B600000F098FD32AA03C229703298641C6D1CF3
:100B700000B20028F3DC012C08DC68464078202114
:100B80000143652902D1302038707F1C002C09D127
:100B9000302038707F1C07E0641E14A8005D3030E0
:100BA00038707F1C002CF7DC07980A994018381A17
:100BB0000B9045E021B232B291421ADA22B2159975
:100BC00000F0C4FB24B20A9800190A90391B0D9159
:100BD000002D05DC04A9098F149AC9B2114206D070
:100BE00069460978079A11540B98401C0B900E9592
:100BF00026E0159900F0AAFB0A98C0190A90A41BD8
:100C0000002D05DC04A9098F149AC9B2114205D040
:100C1000411C0A9169460978079A115420B285420D
:100C200000DA2C0022B21598C11907980A9BC01847
:100C300000F08CFB24B20A9800190A90281B0D9032
:100C400004A83821405C14210140102901D0FFF78D
:100C50008DFB09980A9940180D9940180B99401876
:100C60000E9940181199884201DBFFF77FFB081AA3
:100C7000FFF700FC04AA3A20105C622808D068281C
:100C80000ED06A2814D06C281DD0712810D01AE01C
:100C9000369801680868091D369B1960C0B218E0D3
:100CA000369801680868091D369B196080B210E00B
:100CB00036980368DB1D072083433698036003CB17
:100CC000369C236006E0369801680868091D369B4B
:100CD0001960002104AB03C3108F1499C0B20842FD
:100CE0005BD004A803C8002901D1002855D068466C
:100CF00000782021014378294FD1099822A9302278
:100D00000A54401C421C09926A4612780A5444E074
:100D100004AA3A20105C622808D068280ED06A28FD
:100D200014D06C281DD0712810D01AE036980168B4
:100D30000868091D369B196040B218E036980168B2
:100D40000868091D369B196000B210E036980368E8
:100D5000DB1D072083433698036003CB369D2B6051
:100D600006E0369801680868091D369B1960C117AE
:100D700004AB03C3002902DA09982D2109E0108F82
:100D8000204202D009982B2103E0C00705D509981D
:100D9000202122AA1154401C099022A80999401828
:100DA00007906846017804A800F01AF9FFF7DEFA08
:100DB00004A83A21405C6C280BD001200990369899
:100DC00000680168001D369A106022A80170FFF7C4
:100DD000CDFA369800680168001D369A10601491AB
:100DE00000201590C043109014AAFFF7EAFA2520BE
:100DF00022A908700120099068460078002801D1D6
:100E0000FFF7B4FA4A700994FFF7B0FAFEB506008E
:100E10000D001700686B6969401A296A401AA969B0
:100E2000401A696A401AE969401AA96A401A019091
:100E30003820285C400710D42020694608700198AB
:100E400000280ADD019C01236A462900300000F0D9
:100E500081F9002860D1641EF5D13A006B69290040
:100E6000300000F077F9002856D130276846077027
:100E70002C6A002C09DD01236A462900300000F0AD
:100E800069F9002848D1641EF5D1AB69EA682900E8
:100E9000300000F05FF900283ED1684607706C6AA8
:100EA000002C09DD01236A462900300000F052F9C8
:100EB000002831D1641EF5D1EB69E868A9694218B0
:100EC0002900300000F046F9002825D16846077057
:100ED000AC6A002C09DD01236A462900300000F0CD
:100EE00039F9002818D1641EF5D13820285C400754
:100EF00010D5202069460870019800280ADD019C61
:100F000001236A462900300000F024F9002803D1AB
:100F1000641EF5D1002001E00020C04303B0F0BD05
:100F2000F0B5A7B004000D0016002F6B002F00D500
:100F3000854F00F001FD696B081803A9002200230A
:100F40000CC1812838D2029206940095002425E035
:100F5000AF4234DB00984069401981280BD30098D8
:100F6000446307AA00990698FFF750FF02900028F3
:100F700025D4009844610098406905902A0001A991
:100F800007A8059BC01800F0E1F9059840190099E1
:100F900048613068002812D0361D7F1B002F0EDDFF
:100FA00003AA316801A800F068F9050004D430688C
:100FB0000028CDD16D1ECBD50020C0430EE0069B8E
:100FC000009C0298002804D107AA21001800FFF70E
:100FD0001DFF002802D100216161616327B0F0BDCF
:100FE000F2B586B0040025696F2901D1082707E012
:100FF000084620210143782901D00A2700E0102764
:101000003C2603CC083C04AA03C26A46127E642A2A
:1010100003D06A46127E692A09D1002907DA04A89A
:1010200003C800220023121A8B4104A80CC004A894
:1010300003C800290DD100280BD1206B002808D14E
:10104000082F3DD13820205C000739D53B263020C1
:1010500035E00294009504A830C8761E0196200061
:1010600029003A00FB1700F06CFC3032D0B23A286D
:101070000DDA00988255200029003A00FB1700F095
:1010800060FC04000D0007D1002C05D10AE0684681
:10109000007E8218AF32ECE70298C0680099891987
:1010A0008842DAD3029C009D082F09D13820205CA9
:1010B000000705D5A85D302802D0761E3020A8553F
:1010C0003C20801BA061A919E160216B884206DAEF
:1010D000081A2062208F1D490140218710E0002955
:1010E0000ED53821615C14220A40102A08D1616BA8
:1010F0006269891A226A891A081A002800DD2062AA
:1011000007B0F0BDF8B50026114F04000D000092A5
:1011100014E0C00707D532003B002000290000F092
:1011200049FB04000D000098401000903000390089
:1011300032003B0000F03EFB06000F000098002844
:10114000E7D120002900F4BDFFFFFF7FEFFF000083
:1011500000002440F8B50024002B11D007000E0039
:1011600014001D002178B068B847B060002809D08D
:10117000F06A401CF0620020641C6D1EF2D1040075
:101180002000F2BD0020C043F9E7F1B40168421825
:1011900041684808131800988068C9071ED5494659
:1011A00040181BE01778521C0770401C761EF9D1BE
:1011B000002C13D01678521C89080D40032D01D144
:1011C0001578521C290271184D424119A41C05D0F2
:1011D0000D78491C0570401C641EF9D19A420FD04D
:1011E0001178521C032503260E4002D11678F61CF6
:1011F000521C0C090F2CD9D114780F34521CD5E78E
:1012000000980C30F2BC70472048704730B45368E7
:10121000D41803E05B1C491E641C401C042B06DA36
:10122000002904D0057825700578002DF2D153608F
:1012300030BC704738B500290ED01D001400FFF7F0
:10124000E5FF616820006A6B90470122D243811A52
:1012500002D0491E02D004E0012000E00020C0437B
:1012600032BD0021616032BD80B5DA6B904702BDAE
:1012700080B5064BFFF7DEFF02BD80B5034BFFF7DD
:10128000F3FF02BD02487047000000004C00002040
:1012900014000020C9B202788A4203D0401C002A00
:1012A000F9D1002070472E0080B5002801D100BF81
:1012B00007A006490B68002B03D022220021984783
:1012C00001E000F07CFB222002BD0000881100201C
:1012D000636F6E73747261696E742068616E646CA2
:1012E00065723A20626164206D65737361676500A1
:1012F000431C0178401C0942FBD1C01A70474300CF
:10130000C9B2521E05D30378401C8B42F9D1401E4E
:10131000704700207047FEE770B4103A03D378C9D5
:10132000103A78C0FBD2530701D318C918C001D5B1
:1013300008C908C0D20704D30B880380891C801C0D
:10134000002A01D50B78037070BC70478B0701D160
:101350008307E1D0124205D00B78491C0370401C72
:10136000521EF9D1704710B5144600F002F8226001
:1013700010BD4A0053155B1C08D0520D06D0032344
:101380001B02FE3AD21A1305C91A70470022704791
:1013900030B4012464054D00EC420BD85D00EC42F2
:1013A00008D80C001C4364000443144304D299423F
:1013B00000D1904230BC7047FCD08B42FAD18242BF
:1013C000F8E730B4012464054D00EC420BD85D0011
:1013D000EC4208D80C001C4364000443144304D2BC
:1013E0008B4200D1824230BC7047FCD09942FAD186
:1013F0009042F8E7124217D40023DB435B0D9C4672
:101400004B005B0D06D0634504D09B18634502D2A8
:101410001205891870476246090D1143090500201D
:1014200000B500BF00BF00BD52424B005B0DF1D0C4
:101430005B1C5B05EED25B0D934102D91205891A44
:1014400070470BD10B031B13C90FC907821C002067
:1014500043411343E4D912051143E1E7C90FC9071A
:101460000020DDE7F4464A1805D200F00FF801D558
:1014700080174008604700F009F80121C907884239
:1014800000D90800404260474A1812D2400DC902F4
:1014900008430121C9070843520D40210901521A8E
:1014A000521C06D452421F3201D4D0407047C0179C
:1014B000704700207047FEE7010042221201D21E51
:1014C000004207D002D4521E0018FCD5C10A4005C4
:1014D00012058918704700000100EED54042F4461D
:1014E000FFF7EBFF0122D207114360478B4200D187
:1014F000824205D98446100062468C461900634634
:10150000DF184C18640D7F0D3AD0661C760537D075
:10151000E61B352E34DCDB022B43DB0A0C0DC90243
:101520002943C912202E0DDB1700203E06D01F00D4
:10153000F741F3405F400026012A7741C01871410E
:101540000DD217E01700F741F2405740F3415A40DF
:10155000B340F3405A400026801859410AD3A21CD8
:1015600052050FD0C207012F724117004008CB0768
:1015700018434908641C24054208AF417041614189
:10158000F0BC7047641C21050020F9E76B4010E0B7
:101590006B40ABE7F742F3D1E943F1E72442EFD1E7
:1015A00000200021ECE7F0B40125ED070F005F40BB
:1015B000EED40C00871A9C4105D2C01BA141D21960
:1015C000634169406B40AE0ADF184C18F442E1D227
:1015D000640D7F0DE2D0E61B362ED1DCDB022B43FF
:1015E000DB0AA4460C0DC9022943C90A012E28DCD6
:1015F00004D1D6075208DF073A435B08EF0A764268
:101600009041994114D039423BD1B61940414941EA
:10161000761C394204D1761C001849413942FAD06F
:10162000B9436746B74208D9A41B24052143A7E75D
:101630000042EAD13642E8D1A2E7E40AE1070020FD
:101640009EE7202E0BDD203E1F00F340F7415F4058
:10165000012A002257417E42984191410BE0170038
:10166000F741F2405740F3415A40B340F3405A40EB
:101670007E42904199410A0303D2641EB61940414B
:1016800049410027641E24054208AE41784161416A
:10169000F0BC7047CA0F00D0494203105A400DD029
:1016A00004B500D3404200F009F8009AD20701D3F4
:1016B0004942124200D5404204BD0000094214D004
:1016C00088420FD30122030C01D10004120400232D
:1016D00000185B418B4200D35B1A5241F8D31900CA
:1016E0001000704701000020704708B500F06CF949
:1016F00008BDF0B40E005E400125ED072E40B44653
:10170000AE0ADF184C18F4423BD2F74241D2640DC6
:1017100043D07F0D38D0E41BC902DB0229432B43A1
:10172000CF0ADB0A0600B61A9F4104D2641EB6191E
:101730007F41B6185F416812800D2418001884425A
:1017400022DCE80C0021B6197F41B61A9F4102D273
:10175000B6185F413F1C40414941F4D3241C21DDB0
:101760002405B6197F41B61A9F4105D33743C607F2
:1017700037430026012F7041614166463143F0BC7A
:101780007047FCD1F74205D20020C1434905490802
:10179000F3E704D00020C143F1E77F0DFAD0002029
:1017A0006146ECE72442FAD1401C61410F03F6D3B5
:1017B0000020E2E7F0B50E005E400125ED072E4067
:1017C000B446AE0ADF184C18F44208D2F7420ED2E3
:1017D000640D01D07F0D12D100206146F0BD05D10E
:1017E000F74201D87F0D05D10020C143F0BDFBD1E8
:1017F000640DF9D00020C143490549088FE0E41980
:10180000C902DB0229432B43DB0A460DC0023143E8
:101810008E4630B487B295B27D432E0CADB2140C17
:101820007C43A419260C240425439CB27C43A419B0
:10183000190C7943270CC919A4B20F043C43090CB5
:10184000000C97B247432E0CBE193543ADB2170CAE
:101850004743360CBF19A6B2BF193E043543240CCA
:101860003E0C36199FB24743BF19BCB23E0C8919D2
:101870001F0C47437F183E043443390C704680B236
:1018800097B247432E0CBE193543ADB2170C4743F0
:10189000360CBF19A6B2BF193E043543240C3E0CCA
:1018A00036199FB24743BF19BCB23E0C89191F0CB1
:1018B00047437F183E043443390C77463F0C90B2BF
:1018C00078432E0C80190604ADB22E43050CA0B24D
:1018D0002D18120C7A435019020C80B2240CA41853
:1018E0009AB27A43121914042043120C89181B0C63
:1018F0007B43C91830BCEF0A394203D1B6194041C5
:101900004941641E6F12BF0DE41B0BDBFF19BC4283
:1019100011DA240500274208AE417841614166464C
:101920003143F0BD641C05D1401C6141CF0201D39D
:101930004908F4E750E75DE780B5FFF765FC006C08
:1019400002BD12422DD0994231D970B500251B42FB
:1019500009D00C00002112E01100FFF7AFFE0A00D1
:101960000021002370BD0942F6D000240126491849
:101970006441944200D3A41A7641F8D33100012681
:1019800001E0764109D2001864416D41A41A9D41DD
:10199000F7D2A4185D41B619F5D3300022002B0010
:1019A00070BD1B42CFD108B500F010F808BD01D1C1
:1019B0009042CAD202000B0000210020704780B57F
:1019C000012000F005F801BD7047FEE77047FEE713
:1019D00080B500F007F8024A11001820ABBEFBE703
:1019E0002600020010B500F03BF80200002300249E
:1019F000E4431068A04203D011000220ABBE136084
:101A00005068A04203D0111D0220ABBE536010BD30
:101A1000F0B583B0040000F023F8A10047183D683A
:101A20000026F643B54216D100BF00BF3D68B5425F
:101A30000FD100BF09A00090002C01D1002000E0D0
:101A4000042001900320029069460120ABBE0500EE
:101A50003D6000BF00BF280003B0F0BD3A747400C1
:101A600000487047DC000020FEB5060057D0B64C99
:101A7000E0680C2101400091E068802149020840A3
:101A800001903078C0070ED54F000098082804D088
:101A90000C2867D10198884264D12068074002D0A1
:101AA000706800283BD0307880072AD5F068BA4F9C
:101AB0000921C943009A042A05D00C2A01D1019AB0
:101AC000002A00D089E02268520701D5002826D0DC
:101AD00062681740326912023A436260226811401C
:101AE0000843206000F0B6FAAC49E2681206120F13
:101AF000895CC840BD490860002000F029FB010056
:101B00002FD13078C00600D4B3E0B94F0098002838
:101B100000D08FE02068800503D5F069002800D14F
:101B2000D7E160680740706A38436060606800020F
:101B3000000A316A0906014361600120716A490B9C
:101B4000491C8840C0039549E2681206120F895C5F
:101B5000C840A6490860002000F0FAFA010000D150
:101B600087E0FEBD7068884201D1206809E0A021AD
:101B7000C9028842206806D17900014321602068AB
:101B8000790801430AE0B2490140216020687908E0
:101B90000840029002982068AE49014021607068B8
:101BA00000280DD000F00CFB05002068384000D064
:101BB00079E700F005FB401B6528F6D30320FEBD46
:101BC00000F0FEFA05002068384000D16BE700F015
:101BD000F7FA401B6528F6D3F0E7042201920028AB
:101BE00017D0226811400843206000F0E9FA050090
:101BF00020680199014005D100F0E2FA401B02285B
:101C0000F6D9DBE76068074030690002384360605E
:101C100077E7206801218843206000F0D1FA0500B1
:101C2000206801990140F3D000F0CAFA401B022855
:101C3000F6D9C3E7F0690028206831D0A10D01432F
:101C4000216000F0BDFA05002068800505D400F091
:101C5000B7FA401B0228F7D9B0E760680740706AFE
:101C60003843606060680002000A316A0906014377
:101C700061603078000731D5022770690028206D37
:101C80001DD001210143216500F09AFA0500206D65
:101C9000384023D100F094FA401B0228F7D98DE791
:101CA0008E490140216000F08BFA05002068800514
:101CB000DFD500F085FA401B0228F7D97EE7012125
:101CC0008843206500F07CFA0500206D384005D07F
:101CD00000F076FA401B0228F7D96FE7307840070A
:101CE00065D50020019080204005A16B014004D102
:101CF000A16B0843A06301200190794F3868C005AB
:101D00000FD43868A10D0143396000F059FA05007D
:101D10003868C00505D400F053FA401B6528F7D396
:101D20004CE7B268A10D8A420AD06E48002A0DD055
:101D3000A023DB009A4209D1206D8A00024322656C
:101D4000206D0143216508E000100240216D634AC7
:101D50000A402265216D08402065670DB0680028A3
:101D60000CD000F02DFA0500206D384018D100F09D
:101D700027FA401B5C498842F6D31FE700F020FA9F
:101D80000500206D38400BD000F01AFA401B564970
:101D90008842F6D312E700BFFFE0FFFF8438000857
:101DA0000198002803D0A06BA6490140A1633078B8
:101DB000800633D5A4480227B16900291AD0012131
:101DC000A2680A43A260626B114361630168420C1E
:101DD0000A43026000F0F4F90500A06838401DD104
:101DE00000F0EEF9401B0228F7D9E7E610000020CA
:101DF000FF1FFFFFA16801229143A1600168934A80
:101E00000A40026000F0DCF90500A068384005D007
:101E100000F0D6F9401B0228F7D9CFE6B06A0028B7
:101E200059D000990C293FD08025AD04884902285B
:101E300020682BD10140216000F0C2F90700206822
:101E4000284009D000F0BCF9C01B0228F7D9B5E63C
:101E5000FFFFFEFFFFFFFBFFE0689D490140F06AC6
:101E60000843316B0143706B0843E06020686908E8
:101E70000143216000F0A4F90600206828402AD11F
:101E800000F09EF9801B0228F7D997E601402160F7
:101E900000F096F90600206828401CD000F090F968
:101EA000801B0228F7D989E6012812D0E06880213A
:101EB00049020140F26A91420BD1F02189030140AD
:101EC000326B914205D1C02109040140706B8142FF
:101ED00001D00120FEBD0020FEBD0000FFFEFFFF7F
:101EE00000700040FFFBFFFF89130000F8B50400FD
:101EF00032D000917C480068C107C90F0098814228
:101F00000CD27948016801229143009A0A43026089
:101F10000068C107C90F009881426FD1734D2078C6
:101F2000800705D5E868F0218843A1680143E9608E
:101F300001272068384051D06068022802D1296802
:101F4000890308E0032802D12968890103E00128F8
:101F5000296802D1490702D450E089054ED5E968C5
:101F6000032291430843E86000F02AF90600606804
:101F700002280CD1E8680C21014008292ED000F07D
:101F80001FF9801B68498842F4D30320F2BD03285F
:101F90000BD1E8680C2101400C291FD000F010F98A
:101FA000801B61498842F4D3EFE701280BD1E86830
:101FB0000C210140042911D000F002F9801B5A497C
:101FC0008842F4D3E1E7E8680C21014006D000F034
:101FD000F7F8801B54498842F5D3D6E74248009968
:101FE00002683A4091420BD20168B943009A0A4311
:101FF0000260006807400098874201D00120F2BDCE
:102000002078400705D5E86848490140E068084362
:10201000E8602078000706D5E86845490140206956
:10202000C0000843E86000F015F84249EA6812066B
:10203000120F895CC84040490860002000F088F811
:10204000F2BD0000FFFFFFEF20000140FFDFFFFFB8
:10205000FFFFFFFEF0B5254DE968394A93081026C9
:1020600054080C200840042804D0082809D00C2863
:1020700009D01DE02868064001D01800F0BD10000E
:10208000F0BD2000F0BD2F488F023F0FC05D090258
:10209000890F491CEF68FF0301D5604305E02C68F8
:1020A000264001D0584300E05043FFF707FBF0BD46
:1020B000686801210004400F401C8140C803F0BD46
:1020C0001D48006820491D4A1268520508E00000BA
:1020D000FFFF02FF184800681B49184A1268920463
:1020E000520F895CC8407047002002400010024037
:1020F00010B50F220260114A13689B079B0F4360C3
:102100001368F0241C408460E023DB0014681C404A
:10211000C4601268D208134003610C480068C2070B
:10212000D20F0A6010BD000089130000FFF8FFFF06
:10213000FFC7FFFF84380008100000200C10024089
:102140000024F40094380008903A0008002002406F
:1021500010B586B0010000220F2000F054F80F20C7
:1021600000F055F81248016801220A4302606946EE
:1021700001A8FFF7BDFFFFF7A3FF0E4C8021C905A3
:1021800021600D49E1600D49FFF798FA401E60603B
:1021900000202061A060200000F046F8002803D154
:1021A000200000F057F800E0012006B010BD00004C
:1021B0003810024048110020E703000040420F00A1
:1021C00001484068704700BF0400002010B5C200FD
:1021D00018231340FF249C40E2438907090E9940CD
:1021E000030007D50D4B0007000F0838800880005A
:1021F000181803E00A489B089B00C01803681A409F
:102200001143016010BD80B5FFF7E0FF01BD012162
:10221000C006C00E81400348016070471CED00E01D
:1022200000E400E000E100E010B5040001D101206D
:1022300010BD3920205C002804D1382160542000D2
:1022400000F0E4F8022039216054211D206800F0DC
:10225000B0F819E000680121C2680A43C2608268D0
:102260005207520F062A02D0026811430160002073
:1022700070472068006A0749014005D1206800685E
:102280000121884321680860012039216054002021
:1022900010BD000011110000F8B5040020680025F1
:1022A00002260169314015D0C168314012D00221A7
:1022B000C9430161012121768069800703D0200094
:1022C00000F0A5F805E0200000F0A2F8200000F0E2
:1022D000A0F82576206804270169394016D0C16826
:1022E000394013D00421C943016126768069C02199
:1022F0008900014003D0200000F089F805E02000AB
:1023000000F086F8200000F084F825762068082682
:102310000169314014D0C168314011D00821C9434E
:1023200001612776C069800703D0200000F06FF8B4
:1023300005E0200000F06CF8200000F06AF8257637
:102340002068102102690A4016D0C268114013D0DB
:102350001021C94301612676C069C021890001406E
:1023600003D0200000F053F805E0200000F050F802
:10237000200000F04EF825762068012102690A400D
:1023800008D0C268114005D00121C9430161200075
:1023900000F088F82068402102690A4008D0C2682D
:1023A000114005D04021C9430161200000F085F8AB
:1023B000F1BD70B50268124B124C8025ED05A842A4
:1023C00003D0A04201D0984208D17026B243160033
:1023D0004A683243A84203D0A04201D0984203D1B8
:1023E000094B1340CA681A4380239A430B6913436D
:1023F00003608A68C262096881620121416170BD1F
:102400000014014000080140FFFCFFFF70477047C7
:102410007047704780B500F051F800F009F800F0FF
:1024200061F800F095F800F0E5F800F019F9FEE722
:1024300038B59CB0382200210EA800F04DF91422C6
:102440000021684600F048F92422002105A800F088
:1024500043F912480168124A0A40C10C1143016055
:1024600010200E900124159400251695A02000023E
:10247000179018950EA8FFF7F7FA0F200090019516
:1024800002950395049500216846FFF72FFD0594FA
:10249000089505A800F02AF91DB030BD0070004075
:1024A000FFE7FFFF00688021C905884200D0704720
:1024B00080B500F0FDF901BD7047704710B50024EC
:1024C0000748016840220A4302600020FFF740FEEF
:1024D000002801D0012401E000F0F2F9200010BD35
:1024E0000020024070B586B01422002101A800F03F
:1024F000F3F80421144802680A430260026811409C
:1025000000910099802102680A430260026811402C
:102510000091009901240168214301600068204076
:10252000009000986503094E00222900300000F059
:1025300096FA0195029400200390049001A93000BE
:1025400000F0D2F906B070BD2C1002400008005017
:1025500080B5214821490160E12149024160002103
:102560008160C16001610C2242618161C1610162CF
:10257000416200F091FA002801D0FFF79DFF01BDF4
:1025800010B586B004001422002101A800F0A4F8C0
:102590002068124988421DD1114881688022D201E9
:1025A0000A438260012102680A4302600068014018
:1025B00000910098C020C0000190022002900020ED
:1025C0000390032004900420059001A9A020C005D9
:1025D00000F08AF906B010BD7810002000380140E4
:1025E0002C1002400F4B036018005430086080200C
:1025F0001060704780B500210FA000F036F80A493E
:10260000086001BD10B500BF09A4FA20800000F0E9
:102610005BF880218901054800F027FA200000F0CE
:102620006FFCF2E7FC0C0020841100200008005031
:1026300068656C6C6F0A0000843A00080526000883
:10264000000000000000000080000000000000000A
:102650000000000001000020842900D0C81C704741
:1026600080B500F067FD002002BD38B584B00400DD
:102670000D006069002815D0A069002812D008203C
:10268000205EFFF7E7FFA169029161690191009067
:102690002B0022692168606800F046FC03900398D3
:1026A00005B030BD0820205EFFF7D4FF03A90191DB
:1026B00000902B00226992B22168606800F05AFCF9
:1026C0000128ECD00020EBE780B5002800D10120E4
:1026D00000F016FD002002BD10B504000800110036
:1026E0000200200000F09AFE200010BDFEB504009C
:1026F000644D206882210901014000D189E0002059
:10270000019080204005A96B014004D1A96B0843CA
:10271000A86301200190AF0D5B480068384013D1D9
:10272000594800900068384300990860FFF748FD59
:10273000060000980068384006D1FFF741FD801B75
:102740006528F6D30320FEBD2868C0218903014017
:102750006068C02292030240914205D1A268C02362
:102760009B03134099420BD0C02189020140C02233
:102770009202914204D12968890301D50120FEBD4E
:102780002A6DC0218902114029D0C0229202104036
:10279000814202D02078800606D4A068024091428F
:1027A0001DD0206800051AD5296D38480840296DCC
:1027B000FA020A432A65296D354A0A402A652865C6
:1027C00007400CD0FFF7FCFC0600286D800506D4FE
:1027D000FFF7F6FC801B2F498842F6D3B2E7616809
:1027E000C020800202000A40824206D12A682A4B99
:1027F000134002010A401A432A60296D62681040A2
:10280000084328650198002803D0A86B234901409C
:10281000A9632078C00705D5E86C03218843E168E7
:102820000143E9642078800705D5E86C0C218843D2
:1028300021690143E9642078400705D5E86C18490F
:10284000014060690843E8642078000705D5E86C1A
:1028500014490140A0690843E8642078400605D582
:10286000E86C11490140206A0843E86420780006BA
:1028700005D5E86C0D490140E0690843E864002093
:10288000FEBD00000010024000700040FFFFFCFF92
:10289000FFFFF7FF89130000FFFFCFFFFFFFFFEFF0
:1028A000FFF3FFFFFFCFFFFFFFFFFFFBFFFFF3FF84
:1028B000024841680278891841607047040000208E
:1028C00080B50848016801220A43026041688022FD
:1028D00052050A434260002203210120C043FFF752
:1028E00092FC01BD34100240FFB500220123019388
:1028F0002BE0062603E0614EB042FAD10526AE4039
:102900002643029C26605E4C2668DC4326404D68C8
:10291000ED0300D51E435A4D2E606E6826404F6869
:10292000BF0300D51E436E60AE6826404F68FF02AD
:1029300000D51E43AE60EE6834404E68B60202D544
:1029400026001C003443EC60521C0B681C00D44071
:1029500000D183E0019D95402B40F5D05400032722
:10296000A740FE4302964E68012E05D0022E03D0EA
:10297000112E01D0122E0FD18768029E3E40CF68E3
:10298000A740374387604668AE434D682D09019FD5
:102990002F40974037434760C568029E2E408D68A0
:1029A000A5403543C56095006E4675704D68022D93
:1029B00001D0122D1AD1D508AD0045192E6A039603
:1029C0006E4677781C263E406F463E70039EB446A6
:1029D0000F276E463678B7406646BE43B4460F6949
:1029E0006E463678B740664637432F62076803263F
:1029F000029D3D404F683740BC4627006446BC40BE
:102A00002C4304604C68E4009ED51E4C2468019D54
:102A100025431C4C25601C4C9508AD00641902949C
:102A2000029C24686D466F780C253D400F27AF400F
:102A3000BC43A027FF05B84201D100265FE7134F32
:102A4000B84201D1019E5AE7114FB84201D1022686
:102A500055E7104FB84200D04DE750E7FFBD002AC0
:102A600001D0816170478162704742690B00134059
:102A70001B0491431943816170470000001C005002
:102A800000040140341002400800014000040050DE
:102A900000080050000C005038B5040014D0250088
:102AA00070356868002803D128702000FFF768FDA2
:102AB00024206860206801680122914301602000A1
:102AC00000F020F8012801D1012032BD606A002801
:102AD00002D0200000F028F920684168084A0A4026
:102AE0004260206881682A2291438160FFE7206864
:102AF000016801220A430260200000F07BF932BD28
:102B0000FFB7FFFFF8B505001022102300200024B6
:102B10002E6831687D4F0F40A96839432F690F43F4
:102B200069693943EF690F433760776878493940FD
:102B3000EF680F437760A969009176498E4203D010
:102B4000009F296A39430091B76873493940009F53
:102B50000F43B76071498E4221D17149C96C890711
:102B6000890F04D0022928D03FD3032939E001235B
:102B700000936C4E6A4BE969D702B942009900D0C4
:102B80008FE0002908D0012967D0022968D00429E4
:102B90006FD0082973D07AE0FFF792FA6BE094497E
:102BA0008E420CD15E49C96C0C270F401BD0042FFC
:102BB0001BD0082F01D00C2F13E0022318E0554939
:102BC0008E4215D15649CF6CC021090139400AD037
:102BD0009701B94209D0D701B942EED0C0273F01D1
:102BE000B94204D004E0002302E0042300E00823FB
:102BF00048498E42BCD1002B06D0022B11D0042BA9
:102C000017D0082B18D07BE0FFF75AFA002878D0AD
:102C10006E6871008919884272D3310381420DD2E6
:102C20006EE03F480068024001D0A448F0E7A448A5
:102C3000EEE7FFF70FFAE9E7C80BE9E7030E020238
:102C4000700800218018594132000023FEF779FEF8
:102C50009C4941189C4A91424EE0FFF73BFA0AE03A
:102C6000696848081B681A4001D0984A0AE0984AE7
:102C700008E0FFF7EFF9696840004A0802E0696878
:102C8000480812038018FEF719FD80B200E0012405
:102C900001001039B14233D206400007400F3043E3
:102CA0002BE0002908D0012909D002290AD00429E3
:102CB00011D0082915D01BE0FFF702FA0DE0FFF74D
:102CC00009FA0AE0696848081B681A4001D07B4A83
:102CD00005E07B4A03E0FFF7BDF969684A08801800
:102CE00002E069684808C019FEF7E8FC80B200E01D
:102CF000012401001039B14202D22968C86000E005
:102D000001240020286668662000F2BDF369FFEF09
:102D1000FFCFFFFF00480040FFF4FFFF00380140F5
:102D200000100240F0FF00002421415CC90706D5D5
:102D300001684A68674B1340826A1A434A6024213B
:102D4000415C890706D501684A68634B1340C26A33
:102D50001A434A602421415C490706D501684A6844
:102D60005E4B1340026B1A434A602421415C090701
:102D700006D501684A685A4B1340426B1A434A60B1
:102D80002421415CC90606D501688A68554B134069
:102D9000826B1A438A602421415C890606D501684A
:102DA0008A68514B1340C26B1A438A602421415CEC
:102DB000490611D501684A684C4B1340026C1A430E
:102DC0004A60026C80235B039A4205D14A68484BF3
:102DD0001340426C1A434A602421415C090606D51F
:102DE00001684A68434B1340806C18434860704741
:102DF00000440040F8B5040000257030C560FFF7BE
:102E0000DFF907003C4E20680068000709D50096EE
:102E10003B00002280218903200000F01AF80028DE
:102E20000DD12068006840070BD500963B000022BA
:102E30008021C903200000F00CF8002801D00320F5
:102E4000F2BD210070312020486088600D700020A4
:102E5000F2BDFEB5089E002405000F006846027012
:102E600001932868C0693840B84201D1012000E0D0
:102E700000206946097888421DD10020C04386425F
:102E8000EFD0FFF79DF90199401A864201D3002E39
:102E9000E7D128680168194A0A40026028688168F9
:102EA00001229143816028007030202141608160BF
:102EB00004700320FEBD0020FEBD000000093D009F
:102EC0000024F40000FDFFFF00FD0F0000127A0057
:102ED0000048E801FFFFFDFFFFFFFEFFFFFFFBFFD4
:102EE000FF7FFFFFFFEFFFFFFFDFFFFFFFFFEFFFB2
:102EF000FFFF9FFFFFFFF7FFFFFFFF015FFEFFFFE9
:102F00000EB4C0B5020003A801900020009001ABF0
:102F10000121044878440C30FDF7D2F8029906B03C
:102F2000084700BF250B000078B585B00B9D002D2C
:102F300001D172B6FEE70C9C002C01D172B6FEE7FF
:102F400054260096009E542E01D072B6FEE72563EB
:102F500002255126A55500250395029404AD01953F
:102F60000A9D009500F036F8200000F073F80498F0
:102F700006B070BDF6B585B007000C001D009000CE
:102F800000F052FA060021D0542000F04DFA0490CF
:102F9000002818D02B0021003800049A1663002264
:102FA000049C512562550392049A02920D9A019253
:102FB0000C9A00926A46128B00F00CF8049800F00C
:102FC00049F8012004E0300000F0AAFA0020C043D4
:102FD00007B0F0BDF9B581B00A9C206B920087184C
:102FE0003F1F07208743780700250091342600996A
:102FF00009180A7823189A550978002902D0401C2C
:103000001028F4D3089E43216554062E00D90626C5
:10301000E6626664200044304560201D00F0D3FA6B
:103020002000183000F0CFFA24610720801BA06137
:103030006462200044308560200044300573029AA9
:103040000199380000F0FCFA20600998002800D0AF
:103050000460F7BDF8B5040000F030FB334DE86CB8
:10306000401CE864324FA86A002825D1AC62E86CA5
:1030700001282AD1002614207043381800F094FA51
:10308000761C072EF7D32800743000F08DFA2E003E
:103090008836300000F088FA280000F085FA280011
:1030A000143000F081FA2800383000F07DFA280052
:1030B0007430E8622E6308E0A86D002805D1E06A4C
:1030C000A96AC96A884200D3AC62A86E401CA8668F
:1030D000E06A696D814200D26865211D1422504367
:1030E000381800F073FA00F0F5FAA86D002806D041
:1030F000A86AC06AE16A884201D200F0D9FAF1BD3B
:1031000080B500280FD009490A6F002A01D072B695
:10311000FEE70A6F521C0A67002100F053F900F025
:1031200037F8002801D100F0C3FA01BD500F00208C
:10313000EC0F002010B586B000240594049403AA77
:1031400004A905A8FFF74EFA05980290049801908B
:1031500000940023039A00BF08A17648FFF7E4FE1D
:10316000002809D072B65E480021C943C16601211A
:103170008165046500F07CFA06B010BD49444C45F9
:10318000000000005648016F491C016770470000AD
:10319000F8B5002700260097514C206F002801D178
:1031A00072B6FEE700F08AFA206F401E2067206F9B
:1031B000002837D1E06C00281BD133E0E068C668F6
:1031C0003000183000F028FA301D00F025FAF06ABF
:1031D000616D814200D26065311D554A1423584308
:1031E000101800F0F3F9F06AA16AC96A884200D3A6
:1031F0002566012520680028E0D1002E01D000F0CE
:10320000CEF8E66D002E07D000F010F8002800D0B0
:103210002566761EF8D1E765206E002802D000955D
:1032200000F046FA00F056FA0098F2BDF8B5002614
:103230002B4C206F002849D1276D7F1C27650ED1AC
:10324000E06A0068002801D072B6FEE7E06A216BF0
:10325000E1622063606E401C606600F0A0F8E06EE2
:10326000874229D321E0E06AC068C5686868874260
:1032700021D3281D00F0D0F9A86A002803D0280027
:10328000183000F0C9F9E86A616D814200D26065CA
:10329000291D274A14235843101800F097F9E86AAB
:1032A000A16AC96A884200D30126E06A0068002842
:1032B000D9D10020C043E066A06A1D49C06A14222B
:1032C00050430858022804D3012602E0E06D401C58
:1032D000E065206E002800D001263000F2BD00001D
:1032E000500F002010B53548016F002902D0012190
:1032F000016610BD0166416D00E0491E0C4A1423B1
:103300004B43D2181368002B03D10029F5D172B6B4
:10331000FEE753685B68536014000834A34201D190
:103320005B6853605268D2688262416510BD0000DC
:10333000EC0F00203933000870B5214C1F4D11E00F
:1033400000F0BCF9286AC668301D00F065F9E86C29
:10335000401EE864686B401E686300F0BBF93000F3
:1033600000F00AF8686B0028EAD120680228F9D337
:1033700000F09EF9F6E7000010B504005120205C33
:10338000002806D1206B00F0CBF8200000F0C8F830
:1033900010BD0128F9D00228FAD072B6FEE707481E
:1033A000C16A0968002902D10021C94303E0C16A4A
:1033B000C968C9684968C16670470000500F00209D
:1033C000EC0F0020F8B504000E00134D2F6DA86A15
:1033D000001D00F021F90020C043844208D1002ED6
:1033E00006D0A86A011D2800383000F0EFF8F1BDC2
:1033F0003C19A86A4460BC42A86A04D2011D286B2B
:1034000000F0F0F8F1BD011DE86A00F0EBF8E86E9D
:10341000844200D2EC66F1BD500F0020094202D078
:10342000491E4254FCD17047FEB5060000270197A3
:103430000297FFF7A7FE07245A4DA86800281FD15E
:10344000C0210901280018300090024628001830D9
:10345000204204D0D21DA243881A009941182A6044
:103460006F6050180838A043A86047600760811A51
:103470005160106050682861E86080200006686133
:1034800030006969014041D100283FD00830204216
:1034900003D0010008312040081A002836D0E9681E
:1034A000814233D329002E6801E031001600726892
:1034B000824202D23268002AF7D1AA68964225D009
:1034C0000A680832019232680A607168091A112983
:1034D0000BD332180092224201D072B6FEE7321DA1
:1034E00011507060009800F039F87068E968091AA6
:1034F000E960E9682A69914200D911002961696986
:10350000014371603760019804400294FFF740FE68
:103510000298002801D072B6FEE70198FEBD0000B7
:1035200038B5050019D0083D68681E4C616908422D
:1035300001D172B6FEE72A68002A01D072B6FEE712
:1035400088436860FFF71EFEE06869684018E06025
:10355000280000F003F8FFF71BFE31BD30B5114A1B
:10356000110000E019000B688342FBD34B68CC18B4
:10357000844203D1406818184860080044680B680A
:1035800005199D4208D19268934204D05A68A21846
:1035900042601B6800E013000360814200D00860B5
:1035A00030BD0000E400002001000831416000212E
:1035B000C943816001000831C16001000831016127
:1035C00000210160704700210161704742684A6034
:1035D00093688B6093685960916008610168491C29
:1035E0000160704730B50A680023DB439A4201D17D
:1035F000036907E00300083300E023005C682568E6
:10360000AA42FAD25A684A6091608B605960086198
:103610000168491C016030BD0169826843689A6095
:10362000426883685A604A68824201D182684A606F
:10363000002202610868401E086008687047FEE7C3
:1036400010B503000C3B802464049C6059602F4932
:10365000196020380260203810BD00002C48006836
:103660000021C943884201D072B6FEE772B6FEE778
:1036700038B528480168FF2212040A430260016835
:10368000FF2212060A430260234D00242C60AC6026
:1036900022480068FA218900FEF710F8401E686091
:1036A000072028601A48046000F05FF8002032BD4F
:1036B000802040051A49086006E0000072B61448F0
:1036C0000168491C016000BFBFF34F8FBFF36F8FCC
:1036D000704700000E480168002901D172B6FEE76C
:1036E000491E0160002900D162B6704710B500F094
:1036F0004DF80400FFF79AFD002803D08020400514
:1037000007490860200000F045F810BD5D3600084C
:103710000000002020ED00E010E000E0100000209C
:1037200004ED00E080F308887047EFF309801B4B3D
:103730001A6820381060F0C044464D4656465F4631
:10374000F0C008B572B6FFF7CDFD62B60CBC1168CB
:1037500008681030F0C8A046A946B246BB4680F3C0
:1037600009882038F0C8184770470C4B196808685A
:10377000203080F30988022080F31488BFF36F8F14
:103780003FBCAE4608BC04BC62B61847EFF31080DD
:1037900072B6704780F3108870470000780F0020E1
:1037A000686A6C747A4C00007072696E74665F733C
:1037B0003A20256E20646973616C6C6F77656400D4
:1037C0007072696E74663A2062616420256E2061B1
:1037D0007267756D656E74007072696E74665F7382
:1037E0003A2062616420257320617267756D656E91
:1037F00074000000000000007072696E74665F73F0
:103800003A2062616420256C7320617267756D6572
:103810006E740000000000006E616E004E414E00AC
:10382000696E6600494E46003000FEE70F480168A9
:10383000820D0A430260C1680D4A0A40C2600168F5
:103840000C4A0A400260816801229143816001684C
:10385000094A0A400260C168084A0A40C260002161
:103860000161802000050649086070470010024091
:103870000C40FF88F6FFF6FEFFFFFBFFFFFF02FF95
:1038800008ED00E000000000000000000102030459
:1038900006070809030406080C1018203000000071
:1038A00080B50D49794430310C4A7A442E32914228
:1038B00003D00B4900BF00BF02BD6946087001225A
:1038C000012000F00FF8012802D16846007802BDFF
:1038D0000020C04302BD00BF28C7FFF724C7FFF781
:1038E0009400002080B5002802D400F003F802BD47
:1038F000002002BD80B5002901D1002002BD0128B1
:1039000001D0022802D100F004F802BD00F011F845
:1039100002BD30B583B00C0015000120FEF778F829
:1039200000900194029569460520ABBE281A03B0A9
:1039300030BD18B583B003001400009301910294C8
:1039400069460520ABBE01221900201A00BF00BF46
:1039500004B010BD70B40123002413E00168001D01
:10396000194202D04D466918491E0C60091D121FEC
:10397000042AFAD20D00960701D50C80AD1C1A401E
:1039800000D02C700268001D002AE7D170BC70477F
:1039900010B5074979441831064C7C44163404E0CC
:1039A000081D0A68891888470100A142F8D110BD96
:1039B00008000000240000009DFFFFFFA810000089
:1039C000E400002000000000C3D7FFFFEF0000006C
:1039D000A40000000000002000F00DF8002801D035
:1039E000FFF7D6FF00BF00BF002000BF00BFFEF7FB
:1039F00011FD00F002F80120704780B500F002F8D8
:103A000001BDFEE707463846FDF7E2FFFBE7FEE7AC
:103A10000548014603B4684680F3098800BF00BF2B
:103A200000BF00BFFFF7D8FFA5EDF5FEFF2902D9C3
:103A30000020C04370470170012070470078401E8D
:103A40008041C043C00F704738B505000C0020000E
:103A5000FFF726FFA04200D00025280032BDFEE778
:103A60007047FEE780B50248FEF716FC01BD000076
:103A70004811002001488047014800472D380008C0
:103A8000113A000864656661756C745461736B006B
:103A90000000000001020304FEE7FEE7FEE7FEE788
:103AA000FEE7FEE7FEE7FEE7FEE7FEE7FEE7FEE7EE
:103AB000FEE7FEE7FEE7FEE7FEE70012AA0143018C
:103AC0000001320408F004072000BA3A000804524A
:103AD000FF01E3A6121410010000FE14214C221471
:103AE00045F11601123D40212C432D3A3C21012085
:103AF0000A02040101F810002048110020082104E6
:0D3B0000211B610812D860F212C46461AC90
:0400000508003A11A4
:00000001FF
